:100000000C943A000C9457000C9457000C94570031
:100010000C9457000C9457000C9457000C94570004
:100020000C9457000C9457000C9457000C945700F4
:100030000C9457000C9457000C9457000C945700E4
:100040000C9457000C9457000C9457000C945700D4
:100050000C9457000C9457000C9457000C945700C4
:100060000C9457000C9457000C9457000C945700B4
:100070000C94570011241FBECFEFD4E0DEBFCDBFDC
:1000800012E0A0E0B1E0E4E5FEE002C005900D92D0
:10009000A23EB107D9F722E0A2EEB2E001C01D9264
:1000A000AB3FB207E1F70E945F060C9428070C945F
:1000B000000084EF91E00E94490485E391E00E94F2
:1000C000CC038AE00E94BC0381E090E00C94C20360
:1000D000CF93DF9300D0CDB7DEB7FC01EE5CFE4FCF
:1000E000808189831A82CE0101960E94AF030F900E
:1000F0000F90DF91CF9108958091E2029091E302F9
:100100008230910529F41092E3021092E2020895E0
:1001100001969093E3028093E20208958091E202B7
:100120009091E302009739F482E090E09093E3022B
:100130008093E20208950197F9CFE1E6F0E080E8CC
:1001400080831082A89584B7877F84BFE0E6F0E0C3
:10015000808188618083108208951092800084E0FD
:100160008093810010928500109284000895809100
:1001700084009091850008959C0180918400909165
:100180008500AC01421B530B483E5340B0F7089525
:100190002091840030918500820F931F0C94BC0045
:1001A000853098F4673088F421E030E001C0220FF8
:1001B0006A95EAF7E82FF0E0EB51FD4F822F80952A
:1001C000908189234111822B80830895853080F4AA
:1001D000673070F4E82FF0E0EB51FD4F81E090E0E4
:1001E00001C0880F6A95EAF79081982381E009F4AD
:1001F00080E008956091E402E62FF0E0EB51FD4FBE
:1002000080810E9447018091E4028F5F853018F45D
:100210008093E40208951092E4020895E5EEF2E07E
:100220001082118212821382148208950E94250185
:100230000C940E019C01FC01FF2784A1832B84A355
:1002400085A1832B85A381E00895CF93DF93C1EC33
:10025000D2E0899199910E941A0182E0CF3CD8079F
:10026000C1F783E090E40E941A0180E090E80E94C8
:100270001A0183E090E10E941A0183E090E80E9455
:100280001A0183E090E2DF91CF910C941A01E09182
:10029000EA02F0E0EE0FFF1FE954FD4F20813181AB
:1002A000F901FF2795A1932B95A3A1ECB2E02D9125
:1002B0003D91F901FF2780FF1CC025A1932F909548
:1002C000922395A3869592E0AF3CB90781F7E62F7C
:1002D000F0E0EE0FFF1FE954FD4F20813181F9015D
:1002E000FF2795A1832F8095892385A36093EA0238
:1002F000089595A1932BE5CFFC01892B81F0838193
:10030000681B67FD09C0062E000C770B948181E005
:100310009617170609F00CF480E08170089580E0CC
:100320000895FC01A62F622F892B69F1818148175E
:1003300050F59281291738F59381A91BA7FD23C099
:100340000A2E000CBB0B94819A171B06E1F0DCF01F
:100350000E94AA06480F858190E0BD010E94B30665
:100360009C01942F969596959695E20FF31FE90FB1
:10037000F11D868190E0477002C0959587954A955A
:10038000E2F78170089580E00895CF93DF93EC0148
:100390000E94AD009E0150E040E062E17AE780E01B
:1003A00090E00E94D8063093EE022093ED02DF9198
:1003B000CF9108958091EB029091EC020E94BC00D5
:1003C0008091EB029091EC022091ED023091EE02CF
:1003D000820F931F9093EC028093EB020895692F94
:1003E0000C94E60041E0611101C040E0692F0C94DB
:1003F000D0000C94F2015F926F927F928F929F9245
:10040000AF92BF92CF92DF92EF92FF920F931F9322
:10041000CF93DF93862E772E942E682E592EB62EEC
:10042000A72E062E000C770BE82F082E000CFF0BD2
:100430008B010E1B1F0B272D072C000C330B492F94
:10044000092E000C550BE901C41BD50B17FF59C031
:10045000DD24DA94D7FD02C0DD24D3948F01061B7E
:10046000170BCC24CA94D7FF03C0EA01C21BD30BDD
:100470000C171D076CF1780117FF03C08FEFE81A06
:10048000F80AF594E794A92E681014C0692D8B2DF5
:100490009A2DDF91CF911F910F91FF90EF90DF90F8
:1004A000CF90BF90AF909F908F907F906F905F9014
:1004B0000C94F201692D862D9A2D0E94F201EC1AFE
:1004C000FD0AF7FE03C0E00EF11EAD0C6C0CDCCF94
:1004D0007E01D7FF03C09FEFE91AF90AF594E7946C
:1004E000B82E571499F2692D8B2D952D0E94F2018B
:1004F000E01AF10AF7FE03C0EC0EFD1EBC0C5D0C09
:10050000F0CFCC24C394DD24DA94D7FDAECFDD2424
:10051000D394AECFFF920F931F93CF93DF93D82F37
:10052000F92E162FC72F042F792F0E94FB01402F81
:100530006D2F7C2F8D2F9F2D0E94FB01402F612F4F
:100540007C2F812F9F2D0E94FB01402F612F7C2F3C
:100550008D2F9C2FDF91CF911F910F91FF900C94C5
:10056000FB010E940E01E0E0F1E0118A148608957B
:10057000DF92EF92FF920F931F93CF93DF93D82ECA
:100580007B01C62F0F2D8091020190910301D0E0D5
:10059000019751F1CE2DCD0FE0910801F0910901A5
:1005A0008181D81708F45CC0D0E0E0910801F09197
:1005B00009018281D81708F455C0CF5F27C0212FC9
:1005C0004D2F6D2D0E949101682F8E2D810F902F40
:1005D0000E94F2011F5F8091080190910901FC01C6
:1005E0002281121760F3DF5F0F2D0D1BE0910801D0
:1005F000F09109018181D81798F0D0E0E0910801CD
:10060000F09109018281D81768F001508C2F902F4A
:10061000DF91CF911F910F91FF90EF90DF900895A0
:1006200010E0D9CF60E08E2D8D0F902F0E94F20147
:10063000DF5FE4CF212F4D2F6D2D0E949101682F98
:100640008C2F9F2D910F0E94F2011F5F8091080156
:1006500090910901FC012281121760F3DF5F9ACFAC
:1006600010E0F4CF60E08C2F9F2D9D0F0E94F201CF
:10067000DF5F9BCF1F93CF93DF93EC0110E0899155
:10068000882341F00E94B802BC011F5F853014F43A
:1006900077FFF5CF812FDF91CF911F9108950F93B1
:1006A0001F93CF93DF93EC01362F272F10920C016D
:1006B00040930D0110921001009108011091090161
:1006C0000115110509F446C0F80181816091060108
:1006D0007091070190E00E94B306BC0180910A016D
:1006E00090910B010E94C406CB016AE070E00E9469
:1006F000B30690930F0180930E0130930401209371
:10070000050140E250E0BE0181E191E00E9419073D
:1007100080910001909101010197E1F4FE010190A7
:100720000020E9F73197BF016C1B7D0BF801818137
:100730008F5F0E94AA06815020910201309103012F
:1007400095E02130310509F497E0981718F48EEF01
:1007500080931001DF91CF911F910F910895209107
:1007600002013091030170E02130310509F476E097
:100770004FEF60E00C944F0390E09093070180935B
:1007800006010895909301018093000108959093CC
:100790000301809302010895909309018093080159
:1007A00008958091EF029091F00201969093F002EB
:1007B0008093EF0220910E0130910F018217930771
:1007C00008F441C01092F0021092EF02E0910C0187
:1007D000F0E0E050FF4F8189811109C080910D0147
:1007E000823088F1815080930D0110920C0180912C
:1007F0000C0190E0FC01E050FF4F2189222319F108
:1008000040910001509101012091100141155105C5
:10081000E1F04130510551F1809110018F5F8093DB
:100820001001082E000C990BE0910801F0910901CC
:100830002181281719063CF41092100180910C01B7
:100840008F5F80930C010C94FA002111E5CF609129
:100850000401709105018F5E9E4F0E943A039091B2
:100860000C019150980F90930C01D6CF6091040128
:1008700070910501409102015091030141305105F1
:1008800031F4720F8F5E9E4F0E943A03C5CF621BF8
:10089000F9CFCF93DF93C0E0D1E09B878A870E9496
:1008A000160184E190E09F838E83DF91CF910C94B9
:1008B000B1029C0163307105A1F040F46130710513
:1008C000E1F06230710511F180E008956430710546
:1008D000D9F7F901FF2784A1832B84A385A1832B5A
:1008E00009C0F901FF2784A1832B84A395A1832F3D
:1008F0008095892385A381E00895F901FF2794A1BC
:10090000832F8095982394A395A1F3CFF901FF2716
:1009100094A1832F80958923E0CFE82FF0E0EE0F9C
:10092000FF1FEF50FD4F8081882329F0818191E0E6
:1009300089278170089580E0FCCFE82FF0E0EE0F6A
:10094000FF1FEF50FD4F8081811103C081818170B5
:10095000089580E0FCCFE82FF0E0EE0FFF1FEF508E
:10096000FD4F80810895E82FF0E0EE0FFF1FEF505C
:10097000FD4F908181E0892708957F928F929F9209
:10098000AF92BF92CF92DF92EF92FF920F931F939D
:10099000CF93DF93C1EFD2E05FECC52E52E0D52EAE
:1009A00066E0762E88818983F601019111916F01AD
:1009B0005801BB24F50124A1E12EFF2485A190E07C
:1009C0008E219F2130E02E213F21232BB1F133E0F6
:1009D000832E912C892B19F094E0892E912C64E0C0
:1009E00070E0C8010E94590462E070E0C8010E94F2
:1009F0005904872D8A95F1F7F50183A190E0E8224B
:100A0000F92281E0EF2809F080E08883B401C80171
:100A10000E9459042296F2E0CB3FDF0719F6DF91DE
:100A2000CF911F910F91FF90EF90DF90CF90BF90EB
:100A3000AF909F908F907F90089588248394912CFD
:100A4000892B69F282E0882E912CC9CF08950C94ED
:100A5000B8050C94D9050C94BE050C94C4050C94EF
:100A6000CA050E94CA050E94C4058823E1F38CE2EE
:100A700091E00197F1F70E94B80581110C942905C6
:100A800008950C94E005CF93DF9300D00F92CDB77B
:100A9000DEB78091D9029091DA02A091DB028983BE
:100AA0009A83AB83509A589A0E9453068FE690E03F
:100AB0000E94EC0581E090E00E94420661E070E057
:100AC00081E090E00E942F060E941B06CE01019655
:100AD0000E94A0050F900F900F90DF91CF91089585
:100AE000CF93DF93EC01D901FB0120E080E061E0CE
:100AF00070E0841304C02C93DF91CF9108959191FD
:100B00009B01092E02C0220F331F0A94E2F72F5FC8
:100B10003F4F369527952C0F3D1F02C036952795E0
:100B20009A95E2F72F3F310531F328F38F5FE1CF3C
:100B30009C0101979093CD0021502093CC00089503
:100B4000CF93DF93EC01888199810E9498058A8177
:100B50009BEF980F943008F088E098E19093C900DB
:100B60008550880F8093CA0081E0DF91CF9108956E
:100B70008091C800881F8827881F08958091C80029
:100B800085FB882780F908958091C80086FB882717
:100B900080F90895CF93C82F0E94BE058823E1F302
:100BA0008091C80080648093C800C093CE00CF912C
:100BB00008958091C80087FFFCCF8091CE000895F2
:100BC000CF93DF93EC018991811103C0DF91CF9125
:100BD00008950E94CA05F7CFCF93DF930F92CDB748
:100BE000DEB79E012F5F3F4F45E06CED72E00E9443
:100BF0007005E82F81E08E0F80933101898181504B
:100C000087BD18BC85B5877039F095B580913101E5
:100C10008770987F892B85BD898190E0F0E0E45250
:100C2000FD4F208102C0880F991F2A95E2F70F908F
:100C3000DF91CF91089585B3897F85BB95B580916C
:100C400031018770987F892B85BD089585B5887F90
:100C500085BD089585B382FB882780F908950097A4
:100C600019F0019751F0089584B58F736295660F5E
:100C7000660F607C682B64BD089584B562956073CF
:100C80008F7CF8CF009721F0019739F080E008952C
:100C900084B58C7F84BD81E0089584B58E7F84BD4A
:100CA00084B58260F7CF14BC15BC16BC18BC84B5E3
:100CB0008E7F84BD84B5826084BD81E008950E94EA
:100CC0009D000E9459000E94260584EF91E00E9439
:100CD000C5010E9443050E94DA010E94D1030E94CF
:100CE000BD0480E00E948D0481110E947C0082E09E
:100CF0000E948D0481110E948E0081E00E948D046B
:100D000081110E948E0083E00E948D0481110E9457
:100D10007C0084E00E948D04882321F08091E2020F
:100D20000E9431050E942705882369F00E94290549
:100D3000082E000C990B8F3F910509F020F4909339
:100D4000E3028093E2028091E2029091E3020E942A
:100D50006800C1CF002480FD060E660F11F0869555
:100D6000D1F7802D08950024552704C0080E591F7F
:100D7000880F991F009729F076956795B8F371054C
:100D8000B9F7802D952F0895AA1BBB1B51E107C011
:100D9000AA1FBB1FA617B70710F0A61BB70B881F0B
:100DA000991F5A95A9F780959095BC01CD0108959A
:100DB000052E97FB1EF400940E94EF0657FD07D006
:100DC0000E94F70607FC03D04EF40C94EF065095F2
:100DD0004095309521953F4F4F4F5F4F0895909527
:100DE0008095709561957F4F8F4F9F4F0895A1E239
:100DF0001A2EAA1BBB1BFD010DC0AA1FBB1FEE1F95
:100E0000FF1FA217B307E407F50720F0A21BB30BDF
:100E1000E40BF50B661F771F881F991F1A9469F75B
:100E200060957095809590959B01AC01BD01CF01B7
:100E30000895FB01DC014150504048F001900D92B3
:100E40000020C9F701C01D9241505040E0F70895BD
:040E5000F894FFCF44
:100E5400000000000000140000000000000000007A
:100E6400000000000000000000000000000000007E
:100E7400000000000000000000000000000000006E
:100E84000001505352010505205F0400000000C614
:100E94001860004A010000EAABAF00BE38FA001344
:100EA40011910126896C0186080000480481000222
:100EB400412400A4BA4A00847C42000018220000A5
:100EC4007C000000006300101111002ED7E900C45B
:100ED40010E2002E12F1010E3AE8004CA58F003FFB
:100EE4003CE8002EBCE8003F4244002EBAE8002E45
:100EF4007AE800C6006300C600230090040201E003
:100F0400830F00814012002E1240000EDAEA0044E2
:100F1400C51F012FBEF8002E86E8002FC6F8003F3B
:100F2400BCF0013FBC10002EF4E80131FE18018E24
:100F340010E20010C6E800318D14012184F0017123
:100F4400D7180171D61C012EC6E8002FBE10002E42
:100F5400C664012FBE18012E38E8009F10420031EC
:100F6400C6E8003146450031D61D01511115013145
:100F74002A42001F92F00127847000411004010EE0
:100F840021E400444500000000F001822000000E2E
:100F9400FAE801A1CDF8002E84E80010DAE8012E69
:100FA400FEE0004C8A23003E7AE80021B4190104D3
:100FB40018E20008B06400A98C92008610E200AB2D
:100FC400D618016DC618012EC6E8002FBE100036D3
:100FD4007B08016D8610002E38F800E208C9003144
:100FE400C66C0131464500B1D6AA00511115013134
:100FF4007AE8001F11F1014C0CC1008410420086F4
:10100400206200A22200000340008003100380033A
:10101400200040002000100008000400020001032A
:10102400800340032000800310D00008000306085A
:021034000A00B0
:00000001FF
