:100000000C943A000C9457000C9457000C94570031
:100010000C9457000C9457000C9457000C94570004
:100020000C9457000C9457000C9457000C945700F4
:100030000C9457000C9457000C9457000C945700E4
:100040000C9457000C9457000C9457000C945700D4
:100050000C9457000C9457000C9457000C945700C4
:100060000C9457000C9457000C9457000C945700B4
:100070000C94570011241FBECFEFD4E0DEBFCDBFDC
:1000800012E0A0E0B1E0E8EBFBE002C005900D92C9
:10009000AA3DB107D9F722E0AAEDB2E001C01D9256
:1000A000A13FB207E1F70E9427050C94DA050C94F2
:1000B000000084EF91E00E94490486E391E00E94F1
:1000C000CC038AE00E94BC0381E090E00C94C20360
:1000D000CF93DF9300D0CDB7DEB7FC01ED5CFE4FD0
:1000E000808189831A82CE0101960E94AF030F900E
:1000F0000F90DF91CF9108958091000190910101BF
:100100008230910529F410920101109200010895A6
:100110000196909301018093000108958091000160
:1001200090910101009739F482E090E090930101F1
:100130008093000108950197F9CFE1E6F0E080E8AF
:1001400080831082A89584B7877F84BFE0E6F0E0C3
:10015000808188618083108208951092800084E0FD
:100160008093810010928500109284000895809100
:1001700084009091850008959C0180918400909165
:100180008500AC01421B530B483E5340B0F7089525
:100190002091840030918500820F931F0C94BC0045
:1001A000853098F4673088F421E030E001C0220FF8
:1001B0006A95EAF7E82FF0E0E552FD4F822F80952F
:1001C000908189234111822B80830895853080F4AA
:1001D000673070F4E82FF0E0E552FD4F81E090E0E9
:1001E00001C0880F6A95EAF79081982381E009F4AD
:1001F00080E008956091DA02E62FF0E0E552FD4FCD
:1002000080810E9447018091DA028F5F853018F467
:100210008093DA0208951092DA020895EBEDF2E08D
:100220001082118212821382148208950E94250185
:100230000C940E019C01FC01FF2784A1832B84A355
:1002400085A1832B85A381E00895CF93DF93C2EC32
:10025000D2E0899199910E941A0182E0C03DD807AD
:10026000C1F783E090E40E941A0180E090E80E94C8
:100270001A0183E090E10E941A0183E090E80E9455
:100280001A0183E090E2DF91CF910C941A01E09182
:10029000E002F0E0EE0FFF1FE854FD4F20813181B6
:1002A000F901FF2795A1932B95A3A2ECB2E02D9124
:1002B0003D91F901FF2780FF1CC025A1932F909548
:1002C000922395A3869592E0A03DB90781F7E62F8A
:1002D000F0E0EE0FFF1FE854FD4F20813181F9015E
:1002E000FF2795A1832F8095892385A36093E00242
:1002F000089595A1932BE5CFFC01892B81F0838193
:10030000681B67FD09C0062E000C770B948181E005
:100310009617170609F00CF480E08170089580E0CC
:100320000895FC01A62F622F892B69F1818148175E
:1003300050F59281291738F59381A91BA7FD23C099
:100340000A2E000CBB0B94819A171B06E1F0DCF01F
:100350000E945C05480F858190E0BD010E94650503
:100360009C01942F969596959695E20FF31FE90FB1
:10037000F11D868190E0477002C0959587954A955A
:10038000E2F78170089580E00895CF93DF93EC0148
:100390000E94AD009E0150E040E062E17AE780E01B
:1003A00090E00E948A053093E4022093E302DF91FB
:1003B000CF9108958091E1029091E2020E94BC00E9
:1003C0008091E1029091E2022091E3023091E402F7
:1003D000820F931F9093E2028093E1020895692FA8
:1003E0000C94E60041E0611101C040E0692F0C94DB
:1003F000D0000C94F2015F926F927F928F929F9245
:10040000AF92BF92CF92DF92EF92FF920F931F9322
:10041000CF93DF93862E772E942E682E592EB62EEC
:10042000A72E062E000C770BE82F082E000CFF0BD2
:100430008B010E1B1F0B272D072C000C330B492F94
:10044000092E000C550BE901C41BD50B17FF59C031
:10045000DD24DA94D7FD02C0DD24D3948F01061B7E
:10046000170BCC24CA94D7FF03C0EA01C21BD30BDD
:100470000C171D076CF1780117FF03C08FEFE81A06
:10048000F80AF594E794A92E681014C0692D8B2DF5
:100490009A2DDF91CF911F910F91FF90EF90DF90F8
:1004A000CF90BF90AF909F908F907F906F905F9014
:1004B0000C94F201692D862D9A2D0E94F201EC1AFE
:1004C000FD0AF7FE03C0E00EF11EAD0C6C0CDCCF94
:1004D0007E01D7FF03C09FEFE91AF90AF594E7946C
:1004E000B82E571499F2692D8B2D952D0E94F2018B
:1004F000E01AF10AF7FE03C0EC0EFD1EBC0C5D0C09
:10050000F0CFCC24C394DD24DA94D7FDAECFDD2424
:10051000D394AECFFF920F931F93CF93DF93D82F37
:10052000F92E162FC72F042F792F0E94FB01402F81
:100530006D2F7C2F8D2F9F2D0E94FB01402F612F4F
:100540007C2F812F9F2D0E94FB01402F612F7C2F3C
:100550008D2F9C2FDF91CF911F910F91FF900C94C5
:10056000FB010E940E01E2E0F1E0118A1486089579
:10057000DF92EF92FF920F931F93CF93DF93D82ECA
:100580007B01C62F0F2D8091040190910501D0E0D1
:10059000019751F1CE2DCD0FE0910A01F0910B01A1
:1005A0008181D81708F45CC0D0E0E0910A01F09195
:1005B0000B018281D81708F455C0CF5F27C0212FC7
:1005C0004D2F6D2D0E949101682F8E2D810F902F40
:1005D0000E94F2011F5F80910A0190910B01FC01C2
:1005E0002281121760F3DF5F0F2D0D1BE0910A01CE
:1005F000F0910B018181D81798F0D0E0E0910A01C9
:10060000F0910B018281D81768F001508C2F902F48
:10061000DF91CF911F910F91FF90EF90DF900895A0
:1006200010E0D9CF60E08E2D8D0F902F0E94F20147
:10063000DF5FE4CF212F4D2F6D2D0E949101682F98
:100640008C2F9F2D910F0E94F2011F5F80910A0154
:1006500090910B01FC012281121760F3DF5F9ACFAA
:1006600010E0F4CF60E08C2F9F2D9D0F0E94F201CF
:10067000DF5F9BCF1F93CF93DF93EC0110E0899155
:10068000882341F00E94B802BC011F5F853014F43A
:1006900077FFF5CF812FDF91CF911F9108950F93B1
:1006A0001F93CF93DF93EC01362F272F10920E016B
:1006B00040930F011092120100910A0110910B0159
:1006C0000115110509F446C0F80181816091080106
:1006D0007091090190E00E946505BC0180910C01B8
:1006E00090910D010E947605CB016AE070E00E94B6
:1006F00065059093110180931001309306012093BA
:10070000070140E250E0BE0183E191E00E94CB0589
:1007100080910201909103010197E1F4FE010190A3
:100720000020E9F73197BF016C1B7D0BF801818137
:100730008F5F0E945C05815020910401309105017A
:1007400095E02130310509F497E0981718F48EEF01
:1007500080931201DF91CF911F910F910895209105
:1007600004013091050170E02130310509F476E093
:100770004FEF60E00C944F0390E090930901809359
:1007800008010895909303018093020108959093C6
:10079000050180930401089590930B0180930A0151
:1007A00008958091E5029091E60201969093E60209
:1007B0008093E50220911001309111018217930777
:1007C00008F441C01092E6021092E502E0910E0199
:1007D000F0E0EE5FFE4F8189811109C080910F0129
:1007E000823088F1815080930F0110920E01809128
:1007F0000E0190E0FC01EE5FFE4F2189222319F1EA
:1008000040910201509103012091120141155105BF
:10081000E1F04130510551F1809112018F5F8093D9
:100820001201082E000C990BE0910A01F0910B01C6
:100830002181281719063CF41092120180910E01B3
:100840008F5F80930E010C94FA002111E5CF609127
:100850000601709107018D5E9E4F0E943A039091B0
:100860000E019150980F90930E01D6CF6091060122
:1008700070910701409104015091050141305105EB
:1008800031F4720F8D5E9E4F0E943A03C5CF621BFA
:10089000F9CFCF93DF93C2E0D1E09B878A870E9494
:1008A000160184E190E09F838E83DF91CF910C94B9
:1008B000B1029C0163307105A1F040F46130710513
:1008C000E1F06230710511F180E008956430710546
:1008D000D9F7F901FF2784A1832B84A385A1832B5A
:1008E00009C0F901FF2784A1832B84A395A1832F3D
:1008F0008095892385A381E00895F901FF2794A1BC
:10090000832F8095982394A395A1F3CFF901FF2716
:1009100094A1832F80958923E0CFE82FF0E0EE0F9C
:10092000FF1FE951FD4F8081882329F0818191E0EB
:1009300089278170089580E0FCCFE82FF0E0EE0F6A
:10094000FF1FE951FD4F8081811103C081818170BA
:10095000089580E0FCCFE82FF0E0EE0FFF1FE95193
:10096000FD4F80810895E82FF0E0EE0FFF1FE95161
:10097000FD4F908181E0892708957F928F929F9209
:10098000AF92BF92CF92DF92EF92FF920F931F939D
:10099000CF93DF93C7EED2E050EDC52E52E0D52EB7
:1009A00066E0762E88818983F601019111916F01AD
:1009B0005801BB24F50124A1E12EFF2485A190E07C
:1009C0008E219F2130E02E213F21232BB1F133E0F6
:1009D000832E912C892B19F094E0892E912C64E0C0
:1009E00070E0C8010E94590462E070E0C8010E94F2
:1009F0005904872D8A95F1F7F50183A190E0E8224B
:100A0000F92281E0EF2809F080E08883B401C80171
:100A10000E9459042296F2E0C13FDF0719F6DF91E8
:100A2000CF911F910F91FF90EF90DF90CF90BF90EB
:100A3000AF909F908F907F90089588248394912CFD
:100A4000892B69F282E0882E912CC9CF08950E94EB
:100A50009D000E9459000E94260584EF91E00E94AB
:100A6000C5010E94DA010E94D1030E94BD0480E00A
:100A70000E948D0481110E947C0082E00E948D04FE
:100A800081110E948E0081E00E948D0481110E94DC
:100A90008E0083E00E948D0481110E947C0084E01E
:100AA0000E948D0481110E947C0080910001909130
:100AB00001010E946800D5CF002480FD060E660F5C
:100AC00011F08695D1F7802D08950024552704C094
:100AD000080E591F880F991F009729F07695679582
:100AE000B8F37105B9F7802D952F0895AA1BBB1B8C
:100AF00051E107C0AA1FBB1FA617B70710F0A61B1E
:100B0000B70B881F991F5A95A9F780959095BC013E
:100B1000CD010895052E97FB1EF400940E94A105B7
:100B200057FD07D00E94A90507FC03D04EF40C9492
:100B3000A10550954095309521953F4F4F4F5F4F00
:100B4000089590958095709561957F4F8F4F9F4F39
:100B50000895A1E21A2EAA1BBB1BFD010DC0AA1FFE
:100B6000BB1FEE1FFF1FA217B307E407F50720F016
:100B7000A21BB30BE40BF50B661F771F881F991F91
:100B80001A9469F760957095809590959B01AC01DA
:100B9000BD01CF010895FB01DC014150504048F0F8
:100BA00001900D920020C9F701C01D9241505040A4
:080BB000E0F70895F894FFCF6F
:100BB8000100000000000000140000000000000018
:100BC800000000000000000000000000000000001D
:100BD800000000000000000000000000000000000D
:100BE800000000505352010505205F04000000007A
:100BF800C61860004A010000EAABAF00BE38FA0030
:100C08001311910126896C018608000048048100AF
:100C180002412400A4BA4A00847C42000018220041
:100C2800007C000000006300101111002ED7E900BD
:100C3800C410E2002E12F1010E3AE8004CA58F0014
:100C48003F3CE8002EBCE8003F4244002EBAE800D2
:100C58002E7AE800C6006300C60023009004020153
:100C6800E0830F00814012002E1240000EDAEA00E5
:100C780044C51F012FBEF8002E86E8002FC6F800D5
:100C88003FBCF0013FBC10002EF4E80131FE180112
:100C98008E10E20010C6E800318D14012184F001A5
:100CA80071D7180171D61C012EC6E8002FBE10009E
:100CB8002EC664012FBE18012E38E8009F1042008E
:100CC80031C6E8003146450031D61D0151111501E4
:100CD800312A42001F92F00127847000411004015C
:100CE8000E21E400444500000000F00182200000CD
:100CF8000EFAE801A1CDF8002E84E80010DAE80128
:100D08002EFEE0004C8A23003E7AE80021B4190147
:100D18000418E20008B06400A98C92008610E20072
:100D2800ABD618016DC618012EC6E8002FBE1000FC
:100D3800367B08016D8610002E38F800E208C900DD
:100D480031C66C0131464500B1D6AA0051111501D2
:100D5800317AE8001F11F1014C0CC10084104200E7
:100D680086206200A2220000034000800310038056
:100D780003200040002000100008000400020001C9
:0A0D880003800340032000800310E5
:00000001FF
