:100000000C943A000C9457000C9457000C94570031
:100010000C9457000C9457000C9457000C94570004
:100020000C9457000C9457000C9457000C945700F4
:100030000C9457000C9457000C9457000C945700E4
:100040000C9457000C9457000C9457000C945700D4
:100050000C9457000C9457000C9457000C945700C4
:100060000C9457000C9457000C9457000C945700B4
:100070000C94570011241FBECFEFD4E0DEBFCDBFDC
:1000800012E0A0E0B1E0E6EEFEE002C005900D92C5
:10009000A63EB107D9F722E0A6EEB2E001C01D925C
:1000A000AF3FB207E1F70E9492060C9471070C94DF
:1000B000000084EF91E00E947C0489E391E00E94BB
:1000C000FF038AE00E94EF0381E090E00C94F503C7
:1000D000CF93DF9300D0CDB7DEB7FC01EA5CFE4FD3
:1000E000808189831A82CE0101960E94E2030F90DB
:1000F0000F90DF91CF9108958091E6029091E702F1
:100100008230910529F41092E7021092E6020895D8
:1001100001969093E7028093E60208958091E602AB
:100120009091E702009739F482E090E09093E70223
:100130008093E60208950197F9CF20910001309154
:10014000010180910201909103012817390729F4D8
:1001500084E590E00E946800FBCF2115310539F459
:100160000197C9F487E590E00E946800FBCF213039
:10017000310539F4029779F487E590E00E94680030
:10018000FBCF2230310539F4892B29F487E590E043
:100190000E946800FBCF8CE490E00E946800FBCFD7
:1001A000E1E6F0E080E880831082A89584B7877F3D
:1001B00084BFE0E6F0E0808188618083108208954A
:1001C0001092800084E0809381001092850010924C
:1001D00084000895809184009091850008959C0189
:1001E0008091840090918500AC01421B530B483EE6
:1001F0005340B0F708952091840030918500820F1C
:10020000931F0C94EF00853098F4673088F421E058
:1002100030E001C0220F6A95EAF7E82FF0E0E751DD
:10022000FD4F822F8095908189234111822B8083FD
:100230000895853080F4673070F4E82FF0E0E751DE
:10024000FD4F81E090E001C0880F6A95EAF7908148
:10025000982381E009F480E008956091E802E62F98
:10026000F0E0E751FD4F80810E947A018091E80221
:100270008F5F853018F48093E80208951092E802A9
:100280000895E9EEF2E01082118212821382148244
:1002900008950E9458010C9441019C01FC01FF2724
:1002A00084A1832B84A385A1832B85A381E008955A
:1002B000CF93DF93C5ECD2E0899199910E944D01D3
:1002C00082E0C33DD807C1F783E090E40E944D016E
:1002D00080E090E80E944D0183E090E10E944D0192
:1002E00083E090E80E944D0183E090E2DF91CF919E
:1002F0000C944D01E091EE02F0E0EE0FFF1FE5548B
:10030000FD4F20813181F901FF2795A1932B95A302
:10031000A5ECB2E02D913D91F901FF2780FF1CC0B3
:1003200025A1932F9095922395A3869592E0A33DC6
:10033000B90781F7E62FF0E0EE0FFF1FE554FD4F00
:1003400020813181F901FF2795A1832F8095892391
:1003500085A36093EE02089595A1932BE5CFFC0150
:10036000892B81F08381681B67FD09C0062E000C74
:10037000770B948181E09617170609F00CF480E062
:100380008170089580E00895FC01A62F622F892BCB
:1003900069F18181481750F59281291738F59381C9
:1003A000A91BA7FD23C00A2E000CBB0B94819A1732
:1003B0001B06E1F0DCF00E94F306480F858190E017
:1003C000BD010E94FC069C01942F969596959695EA
:1003D000E20FF31FE90FF11D868190E0477002C024
:1003E000959587954A95E2F78170089580E0089584
:1003F000CF93DF93EC010E94E0009E0150E040E0CB
:1004000062E17AE780E090E00E9421073093F202F7
:100410002093F102DF91CF9108958091EF029091A6
:10042000F0020E94EF008091EF029091F002209183
:10043000F1023091F202820F931F9093F0028093A9
:10044000EF020895692F0C94190141E0611101C078
:1004500040E0692F0C9403010C9425025F926F9287
:100460007F928F929F92AF92BF92CF92DF92EF9244
:10047000FF920F931F93CF93DF93862E772E942EA8
:10048000682E592EB62EA72E062E000C770BE82FBD
:10049000082E000CFF0B8B010E1B1F0B272D072CAA
:1004A000000C330B492F092E000C550BE901C41B1E
:1004B000D50B17FF59C0DD24DA94D7FD02C0DD2427
:1004C000D3948F01061B170BCC24CA94D7FF03C00B
:1004D000EA01C21BD30B0C171D076CF1780117FF43
:1004E00003C08FEFE81AF80AF594E794A92E681074
:1004F00014C0692D8B2D9A2DDF91CF911F910F91F3
:10050000FF90EF90DF90CF90BF90AF909F908F9033
:100510007F906F905F900C942502692D862D9A2D07
:100520000E942502EC1AFD0AF7FE03C0E00EF11E40
:10053000AD0C6C0CDCCF7E01D7FF03C09FEFE91A36
:10054000F90AF594E794B82E571499F2692D8B2D7A
:10055000952D0E942502E01AF10AF7FE03C0EC0E69
:10056000FD1EBC0C5D0CF0CFCC24C394DD24DA94CA
:10057000D7FDAECFDD24D394AECFFF920F931F9360
:10058000CF93DF93D82FF92E162FC72F042F792F53
:100590000E942E02402F6D2F7C2F8D2F9F2D0E94A9
:1005A0002E02402F612F7C2F812F9F2D0E942E0223
:1005B000402F612F7C2F8D2F9C2FDF91CF911F918A
:1005C0000F91FF900C942E020E944101E4E0F1E0B3
:1005D000118A14860895DF92EF92FF920F931F9372
:1005E000CF93DF93D82E7B01C62F0F2D809106016C
:1005F00090910701D0E0019751F1CE2DCD0FE09100
:100600000C01F0910D018181D81708F45CC0D0E095
:10061000E0910C01F0910D018281D81708F455C0CA
:10062000CF5F27C0212F4D2F6D2D0E94C401682F51
:100630008E2D810F902F0E9425021F5F80910C014B
:1006400090910D01FC012281121760F3DF5F0F2DE5
:100650000D1BE0910C01F0910D018181D81798F0EC
:10066000D0E0E0910C01F0910D018281D81768F083
:1006700001508C2F902FDF91CF911F910F91FF9000
:10068000EF90DF90089510E0D9CF60E08E2D8D0FB0
:10069000902F0E942502DF5FE4CF212F4D2F6D2D7B
:1006A0000E94C401682F8C2F9F2D910F0E9425025C
:1006B0001F5F80910C0190910D01FC0122811217A6
:1006C00060F3DF5F9ACF10E0F4CF60E08C2F9F2DB6
:1006D0009D0F0E942502DF5F9BCF1F93CF93DF9377
:1006E000EC0110E08991882341F00E94EB02BC01EB
:1006F0001F5F853014F477FFF5CF812FDF91CF9105
:100700001F9108950F931F93CF93DF93EC01362F22
:10071000272F1092100140931101109214010091A3
:100720000C0110910D010115110509F446C0F801E5
:10073000818160910A0170910B0190E00E94FC069A
:10074000BC0180910E0190910F010E940D07CB0119
:100750006AE070E00E94FC069093130180931201FE
:10076000309308012093090140E250E0BE0185E189
:1007700091E00E9462078091040190910501019728
:10078000E1F4FE0101900020E9F73197BF016C1BF5
:100790007D0BF80181818F5F0E94F30681502091CB
:1007A00006013091070195E02130310509F497E009
:1007B000981718F48EEF80931401DF91CF911F9159
:1007C0000F910895209106013091070170E02130CA
:1007D000310509F476E04FEF60E00C94820390E07D
:1007E00090930B0180930A010895909305018093E3
:1007F0000401089590930701809306010895909352
:100800000D0180930C0108958091F3029091F40200
:1008100001969093F4028093F3022091120130919B
:1008200013018217930708F441C01092F40210924A
:10083000F302E0911001F0E0EC5FFE4F818981113D
:1008400009C080911101823088F18150809311019B
:10085000109210018091100190E0FC01EC5FFE4FBE
:100860002189222319F14091040150910501209121
:10087000140141155105E1F04130510551F18091CC
:1008800014018F5F80931401082E000C990BE091E6
:100890000C01F0910D012181281719063CF41092EA
:1008A0001401809110018F5F809310010C942D0131
:1008B0002111E5CF60910801709109018B5E9E4F77
:1008C0000E946D03909110019150980F9093100128
:1008D000D6CF6091080170910901409106015091B5
:1008E00007014130510531F4720F8B5E9E4F0E941B
:1008F0006D03C5CF621BF9CFCF93DF93C4E0D1E086
:100900009B878A870E94490184E190E09F838E83C0
:10091000DF91CF910C94E4029C0163307105A1F04A
:1009200040F461307105E1F06230710511F180E051
:10093000089564307105D9F7F901FF2784A1832B4D
:1009400084A385A1832B09C0F901FF2784A1832BF0
:1009500084A395A1832F8095892385A381E00895A1
:10096000F901FF2794A1832F8095982394A395A143
:10097000F3CFF901FF2794A1832F80958923E0CF3E
:10098000E82FF0E0EE0FFF1FEB50FD4F8081882332
:1009900029F0818191E089278170089580E0FCCF62
:1009A000E82FF0E0EE0FFF1FEB50FD4F808181112B
:1009B00003C081818170089580E0FCCFE82FF0E0D2
:1009C000EE0FFF1FEB50FD4F80810895E82FF0E000
:1009D000EE0FFF1FEB50FD4F908181E089270895B6
:1009E0007F928F929F92AF92BF92CF92DF92EF92BF
:1009F000FF920F931F93CF93DF93C5EFD2E053ED98
:100A0000C52E52E0D52E66E0762E88818983F601C8
:100A1000019111916F015801BB24F50124A1E12E30
:100A2000FF2485A190E08E219F2130E02E213F21DF
:100A3000232BB1F133E0832E912C892B19F094E014
:100A4000892E912C64E070E0C8010E948C0462E061
:100A500070E0C8010E948C04872D8A95F1F7F5019A
:100A600083A190E0E822F92281E0EF2809F080E0FC
:100A70008883B401C8010E948C042296F2E0CF3F23
:100A8000DF0719F6DF91CF911F910F91FF90EF9043
:100A9000DF90CF90BF90AF909F908F907F90089500
:100AA00088248394912C892B69F282E0882E912CE2
:100AB000C9CF08950C94EB050C940C060C94F10529
:100AC0000C94F7050C94FD050E94FD050E94F705A6
:100AD0008823E1F38CE291E00197F1F70E94EB05A6
:100AE00081110C945C0508950C941306CF93DF9349
:100AF00000D00F92CDB7DEB78091DD029091DE027B
:100B0000A091DF0289839A83AB83509A589A0E94FE
:100B100086068FE690E00E941F0681E090E00E942A
:100B2000750661E070E081E090E00E9462060E943C
:100B30004E06CE0101960E94D3050F900F900F90A4
:100B4000DF91CF910895CF93DF93EC01D901FB01A1
:100B500020E080E061E070E0841304C02C93DF911A
:100B6000CF91089591919B01092E02C0220F331F4E
:100B70000A94E2F72F5F3F4F369527952C0F3D1FC4
:100B800002C0369527959A95E2F72F3F310531F34C
:100B900028F38F5FE1CF9C0101979093CD00215006
:100BA0002093CC000895CF93DF93EC018881998145
:100BB0000E94CB058A819BEF980F943008F088E063
:100BC00098E19093C9008550880F8093CA0081E016
:100BD000DF91CF9108958091C800881F8827881FD2
:100BE00008958091C80085FB882780F90895809139
:100BF000C80086FB882780F90895CF93C82F0E94EC
:100C0000F1058823E1F38091C80080648093C800D7
:100C1000C093CE00CF9108958091C80087FFFCCF8C
:100C20008091CE000895CF93DF93EC0189918111DB
:100C300003C0DF91CF9108950E94FD05F7CFCF93B8
:100C4000DF930F92CDB7DEB79E012F5F3F4F45E098
:100C500060EE72E00E94A305E82F81E08E0F809382
:100C600035018981815087BD18BC85B5877039F001
:100C700095B5809135018770987F892B85BD8981D5
:100C800090E0F0E0E052FD4F208102C0880F991FF4
:100C90002A95E2F70F90DF91CF91089585B3897F70
:100CA00085BB95B5809135018770987F892B85BD6F
:100CB000089585B5887F85BD089585B382FB882713
:100CC00080F90895009719F0019751F0089584B5BF
:100CD0008F736295660F660F607C682B64BD089504
:100CE00084B5629560738F7CF8CF009721F00197EF
:100CF00039F080E0089584B58C7F84BD81E008954B
:100D000084B58E7F84BD84B58260F7CF14BC15BCDA
:100D100016BC18BC84B58E7F84BD84B5826084BD4A
:100D200081E008950E94D0000E9459000E94590558
:100D300084EF91E00E94F8010E9476050E940D0266
:100D40000E9404040E94F00480E00E94C00481110B
:100D50000E947C0082E00E94C00481110E948E00EB
:100D600081E00E94C00481110E948E0083E00E94F5
:100D7000C00481110E947C0084E00E94C00488238A
:100D8000A1F08091E6020E9464058091E6029091B4
:100D9000E7029093010180930001809102019091FC
:100DA0000301039711F00E949D000E945A058823B9
:100DB00099F00E945C05082E000C990B8F3F91055D
:100DC00009F050F490930301809302018091000197
:100DD00090910101039739F78091E6029091E70223
:100DE0000E946800ABCF002480FD060E660F11F054
:100DF0008695D1F7802D08950024552704C0080E4C
:100E0000591F880F991F009729F076956795B8F3B9
:100E10007105B9F7802D952F0895AA1BBB1B51E1D1
:100E200007C0AA1FBB1FA617B70710F0A61BB70B5A
:100E3000881F991F5A95A9F780959095BC01CD01FF
:100E40000895052E97FB1EF400940E94380757FD65
:100E500007D00E94400707FC03D04EF40C943807DB
:100E600050954095309521953F4F4F4F5F4F0895D6
:100E700090958095709561957F4F8F4F9F4F089506
:100E8000A1E21A2EAA1BBB1BFD010DC0AA1FBB1F8E
:100E9000EE1FFF1FA217B307E407F50720F0A21B00
:100EA000B30BE40BF50B661F771F881F991F1A946D
:100EB00069F760957095809590959B01AC01BD0197
:100EC000CF010895FB01DC014150504048F00190F2
:100ED0000D920020C9F701C01D9241505040E0F72B
:060EE0000895F894FFCF15
:100EE60003000300000000000000140000000000E2
:100EF60000000000000000000000000000000000EC
:100F060000000000000000000000000000000000DB
:100F1600000000000001505352010505205F040047
:100F2600000000C61860004A010000EAABAF00BE30
:100F360038FA001311910126896C018608000048D1
:100F460004810002412400A4BA4A00847C420000C5
:100F5600182200007C000000006300101111002E12
:100F6600D7E900C410E2002E12F1010E3AE8004C57
:100F7600A58F003F3CE8002EBCE8003F4244002E0F
:100F8600BAE8002E7AE800C6006300C60023009087
:100F9600040201E0830F00814012002E1240000E71
:100FA600DAEA0044C51F012FBEF8002E86E8002F9E
:100FB600C6F8003FBCF0013FBC10002EF4E801313A
:100FC600FE18018E10E20010C6E800318D140121D2
:100FD60084F00171D7180171D61C012EC6E8002FC6
:100FE600BE10002EC664012FBE18012E38E8009FE1
:100FF60010420031C6E8003146450031D61D015188
:10100600111501312A42001F92F001278470004118
:101016001004010E21E400444500000000F00182A6
:101026002000000EFAE801A1CDF8002E84E8001099
:10103600DAE8012EFEE0004C8A23003E7AE8002121
:10104600B419010418E20008B06400A98C92008665
:1010560010E200ABD618016DC618012EC6E8002FA7
:10106600BE1000367B08016D8610002E38F800E2AF
:1010760008C90031C66C0131464500B1D6AA0051F7
:10108600111501317AE8001F11F1014C0CC10084E1
:1010960010420086206200A2220000034000800366
:1010A6001003800320004000200010000800040008
:1010B60002000103800340032000800310D00008D3
:0610C600000306080A0009
:00000001FF
