:100000000C943A000C9457000C9457000C94570031
:100010000C9457000C9457000C9457000C94570004
:100020000C9457000C9457000C9457000C945700F4
:100030000C9457000C9457000C9457000C945700E4
:100040000C9457000C9457000C9457000C945700D4
:100050000C9457000C9457000C9457000C945700C4
:100060000C9457000C9457000C9457000C945700B4
:100070000C94570011241FBECFEFD4E0DEBFCDBFDC
:1000800013E0A0E0B1E0E2E7FBE102C005900D92D1
:10009000AA3EB107D9F724E0AAEEB3E001C01D9251
:1000A000AC31B207E1F70E9425080C94B70D0C940F
:1000B000000084EF91E00E94EE048EE391E00E9444
:1000C0006D0482E10E945D0481E090E00E9463047F
:1000D0000C944707209102013091030180910401A3
:1000E000909105012817390719F483E090E019C0B1
:1000F0002115310531F481309105C1F485E090E09E
:1001000010C02130310521F48230910591F4F6CFF1
:100110002230310581F4009789F3019761F484E07E
:1001200090E09093EF038093EE0305C0029719F4DB
:10013000F6CF892BA1F38091FB039091FC03DC01A6
:10014000A051BC4FE091EE03F091EF03E556FC4F58
:1001500020812C9301969093FC038093FB038AE00B
:1001600090E09093050180930401909303018093A4
:10017000020181E090E09093FE038093FD030895D7
:100180000F931F93CF93DF938C0180E590E00E9443
:100190008A09EC01892B09F45CC0809100019091DF
:1001A00001019C01201B310B20173107C4F49F93E0
:1001B0008F931F930F9381EA93E09F938F931F92E6
:1001C00080E58F93DF93CF930E94BA0A8DB79EB7D5
:1001D0000A960FB6F8949EBF0FBE8DBF3DC00217A2
:1001E0001307C4F49F938F931F930F9385EB93E0B2
:1001F0009F938F931F9280E58F93DF93CF930E94FD
:10020000BA0A8DB79EB70A960FB6F8949EBF0FBE76
:100210008DBF22C002171307F9F49F938F931F938A
:100220000F939F938F931F930F938AEC93E09F9369
:100230008F931F9280E58F93DF93CF930E94BA0A2A
:100240008DB79EB70E960FB6F8949EBF0FBE8DBFAA
:1002500003C080E090E001C0CE01DF91CF911F91FB
:100260000F910895E0EFF3E080E090E021912223E8
:1002700039F0273509F4019623E0EA3FF207B1F798
:100280000E94C000EC010E945203CE010E944E0465
:100290000E9490020E947204FBCFE1E6F0E080E849
:1002A00080831082A89584B7877F84BFE0E6F0E062
:1002B000808188618083108208951092800084E09C
:1002C000809381001092850010928400089580919F
:1002D0008400909185000895AC01809184009091F4
:1002E00085009C01241B350B283E3340B0F7089550
:1002F0002091840030918500820F931F0C946C0133
:10030000853098F4673088F421E030E001C0220F96
:100310006A95EAF7E82FF0E0E050FC4F922F9095B5
:10032000808189234111822B80830895853080F458
:10033000673070F421E030E001C0220F6A95EAF7DF
:10034000E82FF0E0E050FC4F8081282381E009F4A1
:1003500080E008956091FF03E62FF0E0E050FC4F4D
:1003600080810E94F8018091FF038F5F853018F42F
:100370008093FF0308951092FF030895E0E0F4E0F6
:100380001082118212821382148208950E94D60173
:100390000C94BE019C01FC01FF2784A1832B84A344
:1003A00095A1892F832B85A381E00895CF93DF93B7
:1003B000CAECD2E0899199910E94CA0182E0C83DBD
:1003C000D807C1F783E090E40E94CA0180E090E87A
:1003D0000E94CA0183E090E10E94CA0183E090E894
:1003E0000E94CA0183E090E2DF91CF910C94CA0190
:1003F000E0910504F0E0EE0FFF1FE054FD4F208177
:100400003181F901FF2795A1932B95A3EAECF2E046
:1004100097E020813181D901BB2795962C91959742
:1004200080FF03C03095232301C0232B95962C9386
:100430008695915032969111ECCFE62FF0E0EE0FB9
:10044000FF1FE054FD4F80819181FC01FF2785A1B2
:100450009095892385A3609305040895009789F0FA
:10046000FC012381621B67FD09C0062E000C770B7F
:10047000248130E081E0621773070CF080E0817026
:10048000089580E00895CF93DF93FC01892B79F1E3
:100490008181481760F59281291748F59381A62F2D
:1004A000A91BA7FD24C00A2E000CBB0BC481D0E001
:1004B000AC17BD07E4F4622F0E940709480F85813D
:1004C00090E0BD010E9410090696242F26952695DE
:1004D0002695E80FF91FE20FF11D808190E047702B
:1004E00002C0959587954A95E2F7817001C080E03A
:1004F000DF91CF910895CF93DF93EC010E945D01CE
:100500009E0140E050E062E17AE780E090E00E94E6
:1005100049093093090420930804DF91CF9108958D
:1005200080910604909107040E946C0120910604BA
:10053000309107048091080490910904820F931F61
:1005400090930704809306040895692F0C949601F4
:1005500041E0611101C040E0692F0C9480010C94CE
:10056000A8025F926F927F928F929F92AF92BF92FA
:10057000CF92DF92EF92FF920F931F93CF93DF936F
:10058000562E872E942E5C01E62EF72EC62F660F70
:10059000DD0BC81BD10987FDD395072F770F110BF2
:1005A000091B110997FD1395D7FF03C077247A948F
:1005B00002C07724739417FF03C066246A9402C0B4
:1005C00066246394D7FF03C0D195C195D10917FF65
:1005D00003C0119501951109C017D107A4F06E0150
:1005E000D594C794F92EA51411F1692D8A2D9F2D4C
:1005F0000E94A802C01AD10AD7FE03C0CC0EDD1E8D
:10060000F60CA70CF0CF6801D594C794E82EB81467
:1006100071F0692D8E2D9B2D0E94A802CC1ADD0A47
:10062000D7FE03C0C00ED11EE70CB60CF0CF692D6B
:10063000C701DF91CF911F910F91FF90EF90DF9055
:10064000CF90BF90AF909F908F907F906F905F9072
:100650000C94A802FF920F931F93CF93DF93D82F90
:10066000F92E162FC72F042F792F0E94B102402F89
:100670006D2F7C2F8D2F9F2D0E94B102402F612F57
:100680007C2F812F9F2D0E94B102402F612F7C2F44
:100690008D2F9C2F0E94B102DF91CF911F910F915E
:1006A000FF9008950E94BE01E6E0F1E0118A1486F1
:1006B0000895DF92EF92FF920F931F93CF93DF93F2
:1006C000D82E7B01162F0F2D8091080190910901E2
:1006D000D0E0019799F50F2D0D1BE0910E01F091DF
:1006E0000F018181C0E0D817B8F480910E0190917C
:1006F0000F01FC012281C21768F42C2F4D2F6D2DA4
:100700000E944302682F8E2D8C0F902F0E94A8020A
:10071000CF5FEBCFDF5FDFCFE0910E01F0910F01F4
:100720008281C81740F460E08E2D8C0F902F0E94BC
:10073000A802CF5FF1CF015030C0DF5F1E2D1D0F2B
:10074000E0910E01F0910F018181C0E0D817A8F46B
:1007500080910E0190910F01FC012281C21768F770
:100760002C2F4D2F6D2D0E944302682F812F9F2D1E
:100770009C0F0E94A802CF5FEBCFE0910E01F09199
:100780000F018281C81740F460E0812F9F2D9C0FDC
:100790000E94A802CF5FF1CF1F5F812F902FDF91C2
:1007A000CF911F910F91FF90EF90DF9008950F93DD
:1007B0001F93CF938C01C0E0F80181918F018823B2
:1007C00041F00E945903BC01CF5F853014F477FFDC
:1007D000F3CF8C2FCF911F910F9108950F931F93FB
:1007E000CF93DF93109212014093130110921601E0
:1007F00000910E0110910F010115110509F449C076
:100800009B01EC01F801818160910C0170910D0157
:1008100090E00E941009BC0180911001909111019B
:100820000E942109CB016AE070E00E9410099093B8
:1008300015018093140130930B0120930A0140E2CB
:1008400050E0BE0187E191E00E94AB0A8091060171
:10085000909107010197E9F4FE0101900020E9F76A
:100860003197BF016C1B7D0BF80181818F5F0E9466
:10087000070981502091080130910901213031058B
:1008800011F095E001C097E0981718F48EEF80936F
:100890001601DF91CF911F910F91089520910801CA
:1008A000309109012130310511F070E001C076E08E
:1008B0004FEF60E00E94EE03089590E090930D01E9
:1008C00080930C0108959093070180930601089589
:1008D0009093090180930801089590930F018093EC
:1008E0000E01089580910A0490910B040196909353
:1008F0000B0480930A042091140130911501821792
:10090000930708F469C010920B0410920A04E09156
:100910001201F0E0EA5FFE4F818981110AC08091E7
:100920001301823008F458C0815080931301109253
:1009300012018091120190E0FC01EA5FFE4F2189D3
:10094000222309F449C040910601509107012091EA
:1009500016014115510521F04130510599F024C08F
:10096000211122C060910A0170910B01895E9E4F96
:100970000E94D70390E0019790911201890F809314
:10098000120112C060910A0170910B01409108019F
:10099000509109014130510511F4720F01C0621BE1
:1009A000895E9E4F0E94D703809116018F5F8093CE
:1009B0001601082E000C990BE0910E01F0910F0129
:1009C000218130E0281739073CF4109216018091FC
:1009D00012018F5F809312010C94AA01CF93DF93D1
:1009E000C6E0D1E09B878A870E94C60184E190E03F
:1009F0009F838E83DF91CF910C94520362307105F7
:100A000019F170F46130710559F5FC01FF2724A13B
:100A1000392F3095922F932394A385A183231DC052
:100A20006330710541F064307105D1F4FC01FF279A
:100A300084A1892B0FC0FC01FF2784A1892B84A3EB
:100A400085A19095892309C0FC01FF2784A1292F46
:100A50002095822384A385A1892B85A381E0089515
:100A600080E00895E82FF0E0EE0FFF1FE45FFB4FFA
:100A70008081882321F0918181E0892702C080E074
:100A800090E081700895E82FF0E0EE0FFF1FE45F23
:100A9000FB4F8081811102C0818102C080E090E023
:100AA00081700895E82FF0E0EE0FFF1FE45FFB4F29
:100AB00080810895E82FF0E0EE0FFF1FE45FFB4F09
:100AC000908181E0892708957F928F929F92AF92C3
:100AD000BF92CF92DF92EF92FF920F931F93CF932B
:100AE000DF93CCE0D4E058EDC52E52E0D52E66E081
:100AF000762E88818983F601019111916F01580149
:100B0000BB24F50124A1E12EFF2485A190E08E21D4
:100B10009F2130E02E213F21232B31F0892B51F4EE
:100B200033E0832E912C0DC0892B41F488248394CB
:100B3000912C07C094E0892E912C03C082E0882E6E
:100B4000912C64E070E0C8010E94FE0462E070E055
:100B5000C8010E94FE04872D8A95F1F7F50183A153
:100B600090E0E822F92281E0EF2809F080E0888314
:100B7000B401C8010E94FE042296F4E0C631DF07EA
:100B800009F0B7CFDF91CF911F910F91FF90EF90B8
:100B9000DF90CF90BF90AF909F908F907F900895FF
:100BA00008950C9464060C9485060C946A060C94C3
:100BB00070060C9476060E9476060E9470068823C2
:100BC000E1F38CE291E00197F1F70E946406811154
:100BD0000C94D30508950C948C06CF93DF9300D02A
:100BE0001F92CDB7DEB78091E2029091E302A0910F
:100BF000E40289839A83AB83509A589A0E94010732
:100C00008FE690E00E94980681E090E00E94F00656
:100C100061E070E081E090E00E94DC060E94C8067E
:100C2000CE0101960E944C060F900F900F90DF911D
:100C3000CF910895CF93DF93DC01FB0160E070E07A
:100C400080E0C1E0D0E08417C9F09191BE01092E87
:100C500002C0660F771F0A94E2F76F5F7F4F7695A9
:100C600067956A0F7B1F02C0769567959A95E2F7A4
:100C70006F3F710519F010F08F5FE5CFF9016083C8
:100C8000DF91CF9108959C01215031093093CD001F
:100C900081508093CC000895CF93DF93EC0188813D
:100CA00099810E9443068A819BEF980F943008F047
:100CB00088E098E19093C9008550880F8093CA001E
:100CC00081E0DF91CF9108958091C800881F882727
:100CD000881F08958091C80085FB882780F90895B2
:100CE0008091C80086FB882780F90895CF93C82F8C
:100CF0000E946A068823E1F38091C8008064809393
:100D0000C800C093CE00CF9108958091C80087FF9E
:100D1000FCCF8091CE000895CF93DF93EC018991B1
:100D2000882319F00E947606FACFDF91CF910895BB
:100D3000CF93DF931F92CDB7DEB79E012F5F3F4F5A
:100D400045E065EE72E00E941A0691E0980F9093DC
:100D500037019981915097BD18BC95B5977039F0BE
:100D600095B5209137012770987F922B95BD2981E9
:100D700030E0E82FF0E0EB51FD4FC901008002C0E8
:100D8000880F991F0A94E2F70F90DF91CF91089591
:100D900085B3897F85BB85B5909137019770887F32
:100DA000892B85BD089585B5887F85BD089585B358
:100DB00082FB882780F90895009719F0019741F088
:100DC000089584B58F736295660F660F607C05C0C9
:100DD00084B563706295607F8F7C682B64BD0895D5
:100DE000009741F0019759F484B58E7F84BD84B596
:100DF000826002C084B58C7F84BD81E0089580E06C
:100E0000089514BC15BC16BC18BC84B58E7F84BD77
:100E100084B5826084BD81E0089581110DC0809108
:100E20001604882329F09091170481E0892702C0D5
:100E300080E090E08170089580E0089581110BC0FA
:100E400080911604811103C08091170402C080E0D4
:100E500090E08170089580E00895811103C0809131
:100E60001604089580E00895811105C0909116043C
:100E700081E08927089580E00895E6E1F4E080812B
:100E8000818389B1881F8827881F80830895579898
:100E90005F9808958091EA039091EB03863991055C
:100EA00094F08091EC039091ED03019664E070E082
:100EB0000E9435099093ED038093EC031092EB03AD
:100EC0001092EA03089501969093EB038093EA034E
:100ED00008958091EE039091EF038230910529F4FB
:100EE0001092EF031092EE03089501969093EF0392
:100EF0008093EE0308958091EE039091EF030097A5
:100F000019F482E090E001C001979093EF03809381
:100F1000EE030895809100019091010189309105BF
:100F200019F481E090E001C0019690930101809353
:100F30000001089580910001909101018130910597
:100F400019F489E090E001C001979093010180932A
:100F500000010895AF92BF92CF92DF92EF92FF927D
:100F60000F931F93CF93DF936C010E945203C0E055
:100F7000D0E094E0A92EB12C00E010E07E01EE0C50
:100F8000FF1C8091EC039091ED036EE070E00E94F5
:100F900010098C0D9D1DFC01EE0DFF1D80819181BE
:100FA0009501201B310B02C0959587952A95E2F794
:100FB00080FF05C061E0802F9C2F0E94A8020F5F78
:100FC0001F4F05301105E9F62196C730D105A1F66E
:100FD000DF91CF911F910F91FF90EF90DF90CF9015
:100FE000BF90AF900C947204EF92FF920F931F93F7
:100FF000CF93DF9300D0CDB7DEB77C018B010E9489
:101000004A07F701E00FF11F8081823519F48AE564
:1010100093E009C0803519F482E293E004C083357F
:1010200029F48AEE92E00E94AA0706C089831A82F8
:10103000CE0101960E944E040F900F90DF91CF9148
:101040001F910F91FF90EF9008950E944D010E9413
:1010500059000E94D00584EF91E00E947B020E941B
:10106000ED050E9490020E9472040E94640580E0D7
:101070000E94320581110E948A0782E00E94320597
:1010800081110E949A0781E00E94320581110E941D
:101090009A0783E00E94320581110E948A0784E04A
:1010A0000E943205882329F0809100010E94DB050F
:1010B00011C00E94D105882381F00E94D305082E1B
:1010C000000C990B8F3F910509F038F490930101C2
:1010D00080930001CAE0D0E036C0609100017091B9
:1010E00001016150710982E993E00E94F407B9CFD0
:1010F0000E9490020E9472040E9464058091FD0388
:101100009091FE03892B59F10E943D0780E00E94D7
:101110000D07882381F01092EF031092EE03D09315
:101120000501C0930401D0930301C0930201109202
:10113000FE031092FD036091EE037091EF038BE9C3
:1011400093E00E94F4078091FB039091FC032091AF
:101150000001309101018217930754F252C080E0E0
:101160000E94320581110E94690782E00E943205C7
:1011700081110E947B0781E00E94320581110E944B
:101180007B0783E00E94320581110E94690784E099
:101190000E9432058823B1F08091EE030E94DB05A6
:1011A0008091EE039091EF039093030180930201ED
:1011B00080910401909105010A9721F00E94520349
:1011C0000E946A000E94D105882309F49DCF0E94E5
:1011D000D305082E000C990B8F3F910511F008F0F4
:1011E00093CF909305018093040180910201909127
:1011F00003010A9709F488CF0E9452030E946A00F3
:1012000083CFFC01E051FC4F11820E943201002487
:1012100080FD060E660F11F08695D1F7802D08959A
:101220000024552704C0080E591F880F991F0097E6
:1012300029F076956795B8F37105B9F7802D952F4C
:101240000895AA1BBB1B51E107C0AA1FBB1FA6170D
:10125000B70710F0A61BB70B881F991F5A95A9F75F
:1012600080959095BC01CD01089597FB072E16F44B
:10127000009407D077FD09D00E94210907FC05D012
:101280003EF4909581959F4F0895709561957F4F9D
:101290000895052E97FB1EF400940E94600957FDE7
:1012A00007D00E94680907FC03D04EF40C94600933
:1012B00050954095309521953F4F4F4F5F4F089582
:1012C00090958095709561957F4F8F4F9F4F0895B2
:1012D000A1E21A2EAA1BBB1BFD010DC0AA1FBB1F3A
:1012E000EE1FFF1FA217B307E407F50720F0A21BAC
:1012F000B30BE40BF50B661F771F881F991F1A9419
:1013000069F760957095809590959B01AC01BD0142
:10131000CF0108950F931F93CF93DF9382309105F0
:1013200010F482E090E0E0911A04F0911B0420E0B8
:1013300030E0A0E0B0E0309719F1408151810281A6
:10134000138148175907C8F08417950769F4109757
:1013500031F012960C93129713961C9327C00093AA
:101360001A0410931B0422C02115310519F04217ED
:10137000530718F49A01BD01EF01DF01F801DBCF3B
:1013800021153105F9F0281B390B2430310580F483
:101390008A819B816115710521F0FB019383828312
:1013A00004C090931B0480931A04FE01329644C03B
:1013B000FE01E20FF31F819391932250310939838B
:1013C00028833AC02091180430911904232B41F44A
:1013D00020913A0130913B01309319042093180475
:1013E00020913801309139012115310541F42DB793
:1013F0003EB740913C0150913D01241B350BE091DB
:101400001804F0911904E217F307A0F42E1B3F0B08
:101410002817390778F0AC014E5F5F4F2417350766
:1014200048F04E0F5F1F50931904409318048193A6
:10143000919302C0E0E0F0E0CF01DF91CF911F91E6
:101440000F910895CF93DF93009709F481C0FC01B9
:10145000329713821282A0911A04B0911B04109744
:1014600081F420813181820F931F209118043091E3
:1014700019042817390751F5F0931904E09318045B
:1014800067C0ED0120E030E0CE17DF0740F44A816D
:101490005B819E0141155105F1F0EA01F5CFD3833F
:1014A000C28340815181840F951FC817D90759F411
:1014B00088819981840F951F0296918380838A8108
:1014C0009B81938382832115310529F4F0931B04BA
:1014D000E0931A043DC0E901FB83EA8349915991E5
:1014E000C40FD51FEC17FD0761F480819181840F33
:1014F000951F0296E90199838883828193819B835A
:101500008A83E0E0F0E012968D919C91139700970A
:1015100019F0FD01DC01F7CF8D919C9111979D0190
:101520002E5F3F4F820F931F2091180430911904B2
:101530002817390769F4309729F410921B04109288
:101540001A0402C013821282B0931904A0931804E3
:10155000DF91CF910895FB01DC014150504048F0EC
:1015600001900D920020C9F701C01D9241505040DA
:10157000E0F70895AEE0B0E0E0ECFAE00C948E0DF8
:101580000D891E898F89988D26E02C831A83098303
:1015900097FF02C080E090E801979E838D83AE01A3
:1015A000455E5F4F698D7A8DCE0101960E94EA0AF1
:1015B0004D815E8157FD0AC02F8138854217530740
:1015C0000CF49A01F801E20FF31F10822E96E4E06A
:1015D0000C94AA0DABE0B0E0E0EFFAE00C94800DC3
:1015E0006C017B018A01FC0117821682838181FFD5
:1015F000CFC1CE0101963C01F6019381F70193FD25
:10160000859193FF81917F01882309F4BDC18532C3
:1016100039F493FD859193FF81917F01853229F4FF
:10162000B60190E00E94E40CE7CF912C212C312CE4
:10163000FFE1F315E0F08B3279F038F4803279F085
:101640008332A9F4232D206110C08D3259F08033EC
:1016500071F4232D216009C0832D8260382EE32D83
:10166000E46024C0F32DF86027C0322E29C037FC77
:101670002FC020ED280F2A3098F436FE07C0892DA0
:101680006AE00E940709922E980E1AC0822D6AE025
:101690000E940709222E280E832D8062382E10C04A
:1016A0008E3231F436FC70C1E32DE0643E2E08C06A
:1016B0008C3621F4F32DF0683F2E02C0883641F4B9
:1016C000F70193FD859193FF81917F018111B0CF47
:1016D000982F9F7D9554933028F40C5F1F4F2FE374
:1016E00029830DC0833631F0833771F0833509F0DB
:1016F00059C021C0F801808189830E5F1F4F882463
:101700008394912C530113C02801F2E04F0E511C19
:10171000F801A080B18036FE03C0692D70E002C0E0
:101720006FEF7FEFC5010E94D90C4C018201F32DB0
:10173000FF773F2E16C0280122E0420E511CF8010F
:10174000A080B18036FE03C0692D70E002C06FEF4B
:101750007FEFC5010E94CE0C4C01F32DF0683F2EA7
:10176000820133FC1BC0822D90E088169906B0F4EC
:10177000B60180E290E00E94E40C2A94F4CFF501D7
:1017800037FC859137FE81915F01B60190E00E94A0
:10179000E40C21102A9421E0821A9108811491040A
:1017A00071F7E8C0843611F0893641F5F80137FE4B
:1017B00007C060817181828193810C5F1F4F08C0D7
:1017C00060817181072E000C880B990B0E5F1F4FF3
:1017D000F32DFF763F2E97FF09C090958095709569
:1017E00061957F4F8F4F9F4FF0683F2E2AE030E08A
:1017F000A3010E94200D882E861845C0853731F43C
:10180000232D2F7EB22E2AE030E025C0932D997F24
:10181000B92E8F36C1F018F4883579F0B5C080370D
:1018200019F0883721F0B0C0E92FE061BE2EB4FE78
:101830000DC0FB2DF460BF2E09C034FE0AC0292F55
:101840002660B22E06C028E030E005C020E130E07E
:1018500002C020E132E0F801B7FE07C0608171816B
:10186000828193810C5F1F4F06C06081718180E08F
:1018700090E00E5F1F4FA3010E94200D882E861856
:10188000FB2DFF773F2E36FE0DC0232D2E7FA22E7F
:10189000891458F434FE0BC032FC09C0832D8E7EAF
:1018A000A82E05C0B82CA32C03C0B82C01C0B92C9D
:1018B000A4FE0FC0FE01E80DF11D8081803321F4EC
:1018C0009A2D997EA92E09C0A2FE06C0B394B394A6
:1018D00004C08A2D867809F0B394A3FC11C0A0FE41
:1018E00006C0B21488F4280C922C9B180EC0B214B7
:1018F00060F4B60180E290E00E94E40CB394F7CF6C
:10190000B21418F42B1802C0982C212CA4FE10C07D
:10191000B60180E390E00E94E40CA2FE17C0A1FC97
:1019200003C088E790E002C088E590E0B6010CC0F3
:101930008A2D867859F0A1FE02C08BE201C080E2B8
:10194000A7FC8DE2B60190E00E94E40C891438F403
:10195000B60180E390E00E94E40C9A94F7CF8A9459
:10196000F301E80DF11D8081B60190E00E94E40CC6
:101970008110F5CF222009F43FCEB60180E290E03D
:101980000E94E40C2A94F6CFF6018681978102C06A
:101990008FEF9FEF2B96E2E10C949C0DFC010590DC
:1019A000615070400110D8F7809590958E0F9F1F61
:1019B0000895FC016150704001900110D8F78095A6
:1019C00090958E0F9F1F08950F931F93CF93DF93D2
:1019D000FB01238121FD03C08FEF9FEF2CC022FF6D
:1019E00016C046815781248135814217530744F43C
:1019F000A081B1819D012F5F3F4F318320838C9364
:101A0000268137812F5F3F4F3783268314C08B0198
:101A1000EC01FB010084F185E02D0995892BE1F6AD
:101A2000D80116968D919C911797019617969C93C5
:101A30008E931697CE01DF91CF911F910F9108954C
:101A4000FA01AA27283061F1203191F1E8946F93CF
:101A50006E7F6E5F7F4F8F4F9F4FAF4FB1E040D093
:101A6000B4E03ED0670F781F891F9A1FA11D680F31
:101A7000791F8A1F911DA11D6A0F711D811D911D66
:101A8000A11D22D009F468943F91062E000C301954
:101A9000000C000C3019305D3193CEF6CF01089563
:101AA000462F4770405D4193B3E00FD0C9F7F6CFA2
:101AB000462F4F70405D4A3318F0495D31FD40526A
:101AC000419302D0A9F7EACFB4E0A6959795879500
:101AD00077956795BA95C9F70097610571050895DF
:101AE0009B01AC010A2E069457954795379527958B
:101AF000BA95C9F7620F731F841F951FA01D089523
:101B00002F923F924F925F926F927F928F929F920D
:101B1000AF92BF92CF92DF92EF92FF920F931F93FB
:101B2000CF93DF93CDB7DEB7CA1BDB0B0FB6F894AC
:101B3000DEBF0FBECDBF09942A88398848885F84EC
:101B40006E847D848C849B84AA84B984C884DF805D
:101B5000EE80FD800C811B81AA81B981CE0FD11D41
:101B60000FB6F894DEBF0FBECDBFED010895F89417
:021B7000FFCFA5
:101B720005000A000A000000000000001400000036
:101B82000000000000000000000000000000000053
:101B92000000000000000000000000000000000043
:101BA200000000000000000100001C0420000105EC
:101BB20005205F0400000000C61860004A01000012
:101BC200EAABAF00BE38FA001311910126896C010D
:101BD200860800004804810002412400A4BA4A0099
:101BE200847C420000182200007C00000000630098
:101BF200101111002ED7E900C410E2002E12F101DB
:101C02000E3AE8004CA58F003F3CE8002EBCE800ED
:101C12003F4244002EBAE8002E7AE800C600630074
:101C2200C600230090040201E0830F0081401200ED
:101C32002E1240000EDAEA0044C51F012FBEF80042
:101C42002E86E8002FC6F8003FBCF0013FBC100012
:101C52002EF4E80131FE18018E10E20010C6E800F1
:101C6200318D14012184F00171D7180171D61C0144
:101C72002EC6E8002FBE10002EC664012FBE18012A
:101C82002E38E8009F10420031C6E8003146450078
:101C920031D61D0151111501312A42001F92F00166
:101CA20027847000411004010E21E4004445000025
:101CB2000000F001822000000EFAE801A1CDF80038
:101CC2002E84E80010DAE8012EFEE0004C8A2300A0
:101CD2003E7AE80021B419010418E20008B0640059
:101CE200A98C92008610E200ABD618016DC61801CD
:101CF2002EC6E8002FBE1000367B08016D8610004C
:101D02002E38F800E208C90031C66C0131464500A0
:101D1200B1D6AA0051111501317AE8001F11F10163
:101D22004C0CC1008410420086206200A2220000F6
:101D320003400080031003800320004000200010B5
:101D42000008000400020001038003400320008019
:101D52000310D00008000306080A04000E001F004A
:101D620004000E0011000E000A000A001100040017
:101D72000A0015000A0011000A00040004000A000B
:101D820011000E000A000A00110004000A001500EA
:101D92000A001F00110011001100110011001F00A4
:101DA20000000E000A000A000A000E0000000000F7
:101DB20000000400040004000000000000000E0007
:101DC2000A000A000A000E0000001C001E001C008F
:101DD200180000000000000000000E001F001E009E
:101DE2000C00000000000000000000001C001E00AB
:101DF2001C001800000000000E001F001E000C0056
:101E02000000313233343536373839505352545753
:101E12004C596F752057696E2120576F6E202564CB
:101E22002F25642000596F75204C6F736521205750
:101E32006F6E2025642F25642000596F752044722F
:101E420065772120576F6E2025642F2564204C6F03
:0A1E520073742025642F256420001E
:00000001FF
