:100000000C943A000C9457000C9457000C94570031
:100010000C9457000C9457000C9457000C94570004
:100020000C9457000C9457000C9457000C945700F4
:100030000C9457000C9457000C9457000C945700E4
:100040000C9457000C9457000C9457000C945700D4
:100050000C9457000C9457000C9457000C945700C4
:100060000C9457000C9457000C9457000C945700B4
:100070000C94570011241FBECFEFD4E0DEBFCDBFDC
:1000800013E0A0E0B1E0E6E4FBE102C005900D92D0
:10009000AA3EB107D9F724E0AAEEB3E001C01D9251
:1000A000AC31B207E1F70E941C080C94A10D0C942E
:1000B000000084EF91E00E946B058EE391E00E94C6
:1000C000EE0482E10E94DE0481E090E00E94E404FC
:1000D0000C94B907BF92CF92DF92EF92FF920F93E9
:1000E0001F93CF93DF937C010E94D303D0E0C0E045
:1000F00094E0B92E04E010E06E01CC0CDD1C809180
:10010000EC039091ED036EE070E00E940309F701AB
:10011000E80FF91FEC0DFD1D80819181002E02C0BA
:10012000959587950A94E2F780FF06C061E08B2DD4
:10013000801B9C2F0E9414030150110900F7219687
:10014000C730D105B9F6DF91CF911F910F91FF9084
:10015000EF90DF90CF90BF900C94F304EF92FF925A
:100160000F931F93CF93DF9300D0CDB7DEB78C01F1
:100170007B010E94BC070E0D1F1DF8018081823596
:1001800069F48AE593E00E946A000F900F90DF9176
:10019000CF911F910F91FF90EF900895803519F442
:1001A00082E293E0F0CF833519F48AEE92E0EBCF50
:1001B00089831A82CE0101960E94D104E6CF209154
:1001C00002013091030180910401909105012817EB
:1001D000390759F583E090E09093EF038093EE03A5
:1001E0008091FB039091FC03DC01A051BC4FE09196
:1001F000EE03F091EF03E556FC4F20812C9301961E
:100200009093FC038093FB038AE090E090930501B8
:1002100080930401909303018093020181E090E0B8
:100220009093FE038093FD0308952115310531F469
:1002300081309105B1F485E090E0CECF21303105D9
:1002400031F482309105B9F3892B41F0C9CF2230C6
:10025000310531F6009779F3019711F684E090E0CB
:10026000BBCF029709F0BCCFF9CF0F931F93CF9369
:10027000DF93EC0180E590E00E947D098C01892BE1
:1002800009F180910001909101019C012C1B3D0B13
:100290002C173D07ECF49F938F93DF93CF9381EA64
:1002A00093E09F938F931F9280E58F931F930F93FB
:1002B0000E94B40A8DB79EB70A960FB6F8949EBFF7
:1002C0000FBE8DBFC801DF91CF911F910F9108958F
:1002D000C217D307C4F49F938F93DF93CF9385EB1B
:1002E00093E09F938F931F9280E58F931F930F93BB
:1002F0000E94B40A8DB79EB70A960FB6F8949EBFB7
:100300000FBE8DBFDFCFC217D307E1F69F938F9348
:10031000DF93CF939F938F93DF93CF938AEC93E0F8
:100320009F938F931F9280E58F931F930F930E944B
:10033000B40A8DB79EB70E960FB6F8949EBF0FBE47
:100340008DBFC0CFE0EFF3E090E080E02191222369
:1003500039F0273509F4019623E0EA3FF207B1F7B7
:100360000E943501D82FC92F0E94D3038D2F9C2FB7
:100370000E94D1040E94FC020E94F304FBCFE1E63C
:10038000F0E080E880831082A89584B7877F84BFDF
:10039000E0E6F0E080818861808310820895109209
:1003A000800084E080938100109285001092840088
:1003B0000895809184009091850008959C0180911A
:1003C000840090918500AC01421B530B483E534082
:1003D000B0F708952091840030918500820F931F1B
:1003E0000C94DE01853098F4673088F421E030E029
:1003F00001C0220F6A95EAF7E82FF0E0E050FC4FC9
:10040000822F8095908189234111822B80830895CA
:10041000853080F4673070F4E82FF0E0E050FC4F56
:1004200081E090E001C0880F6A95EAF790819823F7
:1004300081E009F480E008956091FF03E62FF0E089
:10044000E050FC4F80810E9469028091FF038F5F22
:10045000853018F48093FF0308951092FF030895E8
:10046000E0E0F4E010821182128213821482089577
:100470000E9447020C9430029C01FC01FF2784A1DA
:10048000832B84A385A1832B85A381E00895CF933B
:10049000DF93CAECD2E0899199910E943C0282E0FC
:1004A000C83DD807C1F783E090E40E943C0280E099
:1004B00090E80E943C0283E090E10E943C0283E0CD
:1004C00090E80E943C0283E090E2DF91CF910C948F
:1004D0003C02E0910504F0E0EE0FFF1FE054FD4FF9
:1004E00020813181F901FF2795A1932B95A3AAECD7
:1004F000B2E02D913D91F901FF2780FF1CC025A19D
:10050000932F9095922395A3869592E0A83DB907E5
:1005100081F7E62FF0E0EE0FFF1FE054FD4F208142
:100520003181F901FF2795A1832F8095892385A328
:1005300060930504089595A1932BE5CFFC01892BC9
:1005400081F08381681B67FD09C0062E000C770BC4
:10055000948181E09617170609F00CF480E0817011
:10056000089580E00895FC01A62F622F892B69F180
:100570008181481750F59281291738F59381A91B7D
:10058000A7FD23C00A2E000CBB0B94819A171B06F3
:10059000E1F0DCF00E94FA08480F858190E0BD018F
:1005A0000E9403099C01942F969596959695E20FCB
:1005B000F31FE90FF11D868190E0477002C0959509
:1005C00087954A95E2F78170089580E00895CF936A
:1005D000DF93EC010E94CF019E0150E040E062E118
:1005E0007AE780E090E00E943C0930930904209370
:1005F0000804DF91CF91089580910604909107043B
:100600000E94DE0180910604909107042091080465
:1006100030910904820F931F90930704809306047E
:100620000895692F0C94080241E0611101C040E077
:10063000692F0C94F2010C9414035F926F927F92D5
:100640008F929F92AF92BF92CF92DF92EF92FF92E2
:100650000F931F93CF93DF93862E772E942E682EC1
:10066000592EB62EA72E062E000C770BE82F082E3B
:10067000000CFF0B8B010E1B1F0B272D072C000CF2
:10068000330B492F092E000C550BE901C41BD50B68
:1006900017FF59C0DD24DA94D7FD02C0DD24D394BE
:1006A0008F01061B170BCC24CA94D7FF03C0EA01A5
:1006B000C21BD30B0C171D076CF1780117FF03C089
:1006C0008FEFE81AF80AF594E794A92E681014C081
:1006D000692D8B2D9A2DDF91CF911F910F91FF9056
:1006E000EF90DF90CF90BF90AF909F908F907F90D2
:1006F0006F905F900C941403692D862D9A2D0E94A3
:100700001403EC1AFD0AF7FE03C0E00EF11EAD0C57
:100710006C0CDCCF7E01D7FF03C09FEFE91AF90A0A
:10072000F594E794B82E571499F2692D8B2D952DD9
:100730000E941403E01AF10AF7FE03C0EC0EFD1E3E
:10074000BC0C5D0CF0CFCC24C394DD24DA94D7FD2F
:10075000AECFDD24D394AECFFF920F931F93CF93F0
:10076000DF93D82FF92E162FC72F042F792F0E9431
:100770001D03402F6D2F7C2F8D2F9F2D0E941D0359
:10078000402F612F7C2F812F9F2D0E941D03402F12
:10079000612F7C2F8D2F9C2FDF91CF911F910F9177
:1007A000FF900C941D030E943002E6E0F1E0118AF4
:1007B00014860895DF92EF92FF920F931F93CF93C9
:1007C000DF93D82E7B01C62F0F2D809108019091C9
:1007D0000901D0E0019751F1CE2DCD0FE0910E012E
:1007E000F0910F018181D81708F45CC0D0E0E0914E
:1007F0000E01F0910F018281D81708F455C0CF5F28
:1008000027C0212F4D2F6D2D0E94B302682F8E2DF2
:10081000810F902F0E9414031F5F80910E01909111
:100820000F01FC012281121760F3DF5F0F2D0D1BFA
:10083000E0910E01F0910F018181D81798F0D0E07E
:10084000E0910E01F0910F018281D81768F00150FC
:100850008C2F902FDF91CF911F910F91FF90EF90F0
:10086000DF90089510E0D9CF60E08E2D8D0F902F8E
:100870000E941403DF5FE4CF212F4D2F6D2D0E94C6
:10088000B302682F8C2F9F2D910F0E9414031F5FBE
:1008900080910E0190910F01FC012281121760F3EB
:1008A000DF5F9ACF10E0F4CF60E08C2F9F2D9D0F7B
:1008B0000E941403DF5F9BCF1F93CF93DF93EC0164
:1008C00010E08991882341F00E94DA03BC011F5F88
:1008D000853014F477FFF5CF812FDF91CF911F91F1
:1008E00008950F931F93CF93DF93EC01362F272F9B
:1008F00010921201409313011092160100910E0103
:1009000010910F010115110509F446C0F80181810C
:1009100060910C0170910D0190E00E940309BC01EF
:1009200080911001909111010E941409CB016AE09D
:1009300070E00E9403099093150180931401309395
:100940000A0120930B0140E250E0BE0187E191E0F3
:100950000E94A50A80910601909107010197E1F498
:10096000FE0101900020E9F73197BF016C1B7D0B60
:10097000F80181818F5F0E94FA088150209108015F
:100980003091090195E02130310509F497E098177D
:1009900018F48EEF80931601DF91CF911F910F9184
:1009A0000895209108013091090170E0213031054E
:1009B00009F476E04FEF60E00C94710490E09093BE
:1009C0000D0180930C010895909307018093060117
:1009D00008959093090180930801089590930F0161
:1009E00080930E01089580910A0490910B04019662
:1009F00090930B0480930A04209114013091150107
:100A00008217930708F441C010920B0410920A0455
:100A1000E0911201F0E0EA5FFE4F8189811109C087
:100A200080911301823088F18150809313011092DC
:100A300012018091120190E0FC01EA5FFE4F2189D2
:100A4000222319F1409106015091070120911601CE
:100A500041155105E1F04130510551F180911601E8
:100A60008F5F80931601082E000C990BE0910E0108
:100A7000F0910F012181281719063CF410921601FC
:100A8000809112018F5F809312010C941C0221113E
:100A9000E5CF60910A0170910B01895E9E4F0E9423
:100AA0005C04909112019150980F90931201D6CF4F
:100AB00060910A0170910B01409108015091090168
:100AC0004130510531F4720F895E9E4F0E945C04E3
:100AD000C5CF621BF9CFCF93DF93C6E0D1E09B87F0
:100AE0008A870E94380284E190E09F838E83DF91A1
:100AF000CF910C94D3039C0163307105A1F040F4B5
:100B000061307105E1F06230710511F180E0089506
:100B100064307105D9F7F901FF2784A1832B84A3E1
:100B200085A1832B09C0F901FF2784A1832B84A30E
:100B300095A1832F8095892385A381E00895F901EC
:100B4000FF2794A1832F8095982394A395A1F3CF99
:100B5000F901FF2794A1832F80958923E0CFE82F07
:100B6000F0E0EE0FFF1FE45FFB4F8081882329F048
:100B7000818191E089278170089580E0FCCFE82F82
:100B8000F0E0EE0FFF1FE45FFB4F8081811103C097
:100B900081818170089580E0FCCFE82FF0E0EE0FB6
:100BA000FF1FE45FFB4F80810895E82FF0E0EE0F18
:100BB000FF1FE45FFB4F908181E0892708957F92BA
:100BC0008F929F92AF92BF92CF92DF92EF92FF925D
:100BD0000F931F93CF93DF93CCE0D4E058EDC52E55
:100BE00052E0D52E66E0762E88818983F601019148
:100BF00011916F015801BB24F50124A1E12EFF24BE
:100C000085A190E08E219F2130E02E213F21232BD2
:100C1000B1F133E0832E912C892B19F094E0892EC9
:100C2000912C64E070E0C8010E947B0562E070E0F6
:100C3000C8010E947B05872D8A95F1F7F50183A1F4
:100C400090E0E822F92281E0EF2809F080E0888333
:100C5000B401C8010E947B052296F4E0C631DF078B
:100C600019F6DF91CF911F910F91FF90EF90DF90D8
:100C7000CF90BF90AF909F908F907F9008958824E1
:100C80008394912C892B69F282E0882E912CC9CF14
:100C900008950C94DA060C94FB060C94E0060C9470
:100CA000E6060C94EC060E94EC060E94E6068823F9
:100CB000E1F38CE291E00197F1F70E94DA068111ED
:100CC0000C944B0608950C940207CF93DF9300D049
:100CD0000F92CDB7DEB78091E2029091E302A0912E
:100CE000E40289839A83AB83509A589A0E947507CD
:100CF0008FE690E00E940E0781E090E00E9464077A
:100D000061E070E081E090E00E9451070E943D07A1
:100D1000CE0101960E94C2060F900F900F90DF91B6
:100D2000CF910895CF93DF93EC01D901FB0120E02F
:100D300080E061E070E0841304C02C93DF91CF91D8
:100D4000089591919B01092E02C0220F331F0A942E
:100D5000E2F72F5F3F4F369527952C0F3D1F02C0BE
:100D6000369527959A95E2F72F3F310531F328F311
:100D70008F5FE1CF9C0101979093CD00215020938C
:100D8000CC000895CF93DF93EC01888199810E9474
:100D9000BA068A819BEF980F943008F088E098E1BA
:100DA0009093C9008550880F8093CA0081E0DF913D
:100DB000CF9108958091C800881F8827881F0895C3
:100DC0008091C80085FB882780F908958091C8002C
:100DD00086FB882780F90895CF93C82F0E94E006EC
:100DE0008823E1F38091C80080648093C800C09399
:100DF000CE00CF9108958091C80087FFFCCF8091ED
:100E0000CE000895CF93DF93EC018991811103C047
:100E1000DF91CF9108950E94EC06F7CFCF93DF9337
:100E20000F92CDB7DEB79E012F5F3F4F45E065EED5
:100E300072E00E949206E82F81E08E0F80933701C6
:100E40008981815087BD18BC85B5877039F095B50B
:100E5000809137018770987F892B85BD898190E0CB
:100E6000F0E0EB51FD4F208102C0880F991F2A95B9
:100E7000E2F70F90DF91CF91089585B3897F85BB0D
:100E800095B5809137018770987F892B85BD08952E
:100E900085B5887F85BD089585B382FB882780F955
:100EA0000895009719F0019751F0089584B58F7354
:100EB0006295660F660F607C682B64BD089584B5EB
:100EC000629560738F7CF8CF009721F0019739F01D
:100ED00080E0089584B58C7F84BD81E0089584B559
:100EE0008E7F84BD84B58260F7CF14BC15BC16BC60
:100EF00018BC84B58E7F84BD84B5826084BD81E0DA
:100F0000089581110CC080911604882331F08091DE
:100F1000170491E089278170089580E0FCCF80E07C
:100F2000089581110AC080911604811104C0809136
:100F300017048170089580E0FCCF80E0089581114E
:100F400003C080911604089580E00895811105C0C2
:100F50008091160491E08927089580E00895E6E1E4
:100F6000F4E08081818389B1881F8827881F80836E
:100F7000089557985F9808958091EA039091EB0344
:100F80008639910594F08091EC039091ED030196E0
:100F900064E070E00E9428099093ED038093EC03D5
:100FA0001092EB031092EA03089501969093EB03DD
:100FB0008093EA0308958091EE039091EF038230CD
:100FC000910529F41092EF031092EE030895019613
:100FD0009093EF038093EE0308958091EE03909138
:100FE000EF03009739F482E090E09093EF03809351
:100FF000EE0308950197F9CF8091000190910101CE
:101000008930910539F481E090E09093010180935B
:10101000000108950196F9CF80910001909101019E
:101020008130910539F489E090E09093010180933B
:10103000000108950197F9CF0E94BF010E94590055
:101040000E94480684EF91E00E94E7020E94650634
:101050000E94FC020E94F3040E94DF0580E00E94CF
:10106000AF0581110E94FC0782E00E94AF0581114B
:101070000E940C0881E00E94AF0581110E940C08BB
:1010800083E00E94AF0581110E94FC0784E00E946A
:10109000AF058823B9F0809100010E945306CAE091
:1010A000D0E08091FB039091FC03209100013091EE
:1010B0000101821793071CF180519C4FFC011182A2
:1010C0000E94A2010E944906882371F00E944B06EB
:1010D000082E000C990B8F3F910509F028F490938E
:1010E000010180930001DBCF60910001709101014B
:1010F0006150710982E993E00E94AE00A9CF0E947D
:10110000FC020E94F3040E94DF058091FD03909190
:10111000FE03892B09F04EC080E00E94AF058111CB
:101120000E94DB0782E00E94AF0581110E94ED075B
:1011300081E00E94AF0581110E94ED0783E00E94CB
:10114000AF0581110E94DB0784E00E94AF05882370
:10115000B1F08091EE030E9453068091EE039091CE
:10116000EF03909303018093020180910401909119
:1011700005010A9721F00E94D3030E94DF000E941C
:1011800049068823B9F00E944B06082E000C990BE3
:101190008F3F910509F070F490930501809304014D
:1011A00080910201909103010A9721F00E94D303DC
:1011B0000E94DF000E94AF0780E00E948107882321
:1011C00081F01092EF031092EE03D0930501C093CB
:1011D0000401D0930301C09302011092FE03109208
:1011E000FD036091EE037091EF038BE993E00E94A1
:1011F000AE0057CF002480FD060E660F11F08695D5
:10120000D1F7802D08950024552704C0080E591FDA
:10121000880F991F009729F076956795B8F37105A7
:10122000B9F7802D952F0895AA1BBB1B51E107C06C
:10123000AA1FBB1FA617B70710F0A61BB70B881F66
:10124000991F5A95A9F780959095BC01CD010895F5
:1012500097FB072E16F4009407D077FD09D00E9463
:10126000140907FC05D03EF4909581959F4F089591
:10127000709561957F4F0895052E97FB1EF400949D
:101280000E94530957FD07D00E945B0907FC03D059
:101290004EF40C94530950954095309521953F4F4D
:1012A0004F4F5F4F089590958095709561957F4F52
:1012B0008F4F9F4F0895A1E21A2EAA1BBB1BFD0161
:1012C0000DC0AA1FBB1FEE1FFF1FA217B307E40725
:1012D000F50720F0A21BB30BE40BF50B661F771F7D
:1012E000881F991F1A9469F760957095809590955D
:1012F0009B01AC01BD01CF0108950F931F93CF93C4
:10130000DF939C01029710F422E030E0E0911A0490
:10131000F0911B0490E080E0B0E0A0E0309791F401
:10132000009709F445C0821B930B84309105B8F5F2
:101330008A819B816115710569F1FB019383828329
:10134000FE0111C040815181028113814217530770
:10135000F0F04217530799F4109761F012960C932E
:10136000129713961C933296CF01DF91CF911F9164
:101370000F91089500931A0410931B04F4CF009763
:1013800019F04817590718F4CA01BD01EF01DF0130
:10139000F801C4CF90931B0480931A04D1CFFE01AF
:1013A000E80FF91F21933193029799838883DCCF4B
:1013B0008091180490911904892B41F480913A018D
:1013C00090913B0190931904809318048091380107
:1013D00090913901009741F48DB79EB740913C013F
:1013E00050913D01841B950B4091180450911904B4
:1013F0004817590708F0B8CF841B950B821793073D
:1014000008F4B2CFB9016E5F7F4F8617970708F4D3
:10141000ABCF640F751F7093190460931804FA0121
:1014200021933193A1CFCF93DF939C010097E9F0F3
:10143000FC01329713821282C0911A04D0911B04CE
:10144000DE0190E080E02097A1F480819181280F57
:10145000391F80911804909119048217930709F09D
:1014600067C0F0931904E0931804DF91CF910895B9
:10147000DA01AE17BF0708F041C012964D915C919A
:101480001397CD014115510599F7DC011396FC9393
:10149000EE9312974D915D91A40FB51FEA17FB07CC
:1014A00081F4208131812E5F3F4F240F351FDC01F5
:1014B00011963C932E932281338113963C932E9365
:1014C0001297B0E0A0E08A819B810097B1F5FE0100
:1014D00081919191E80FF91F80911804909119045E
:1014E0008E179F0711F6109759F510921B04109252
:1014F0001A04D0931904C0931804B7CFB383A283FE
:1015000040815181240F351FA217B30771F44E5F3C
:101510005F4F2D913C911197420F531F5183408390
:1015200012962D913C9133832283009709F0ADCF21
:10153000F0931B04E0931A0498CFDE01EC01C3CFB3
:1015400013961C921E921297D4CFFB01DC014150DE
:10155000504048F001900D920020C9F701C01D9243
:1015600041505040E0F70895AEE0B0E0EAEBFAE019
:101570000C94780D0D891E898F89988D26E02C8317
:101580001A83098397FF02C080E090E801979E8349
:101590008D83AE01455E5F4F698D7A8DCE010196D8
:1015A0000E94E40A4D815E8157FD0AC02F81388573
:1015B000421753070CF49A01020F131FF80110820F
:1015C0002E96E4E00C94940DAFE0B0E0EAEEFAE081
:1015D0000C946A0D7C013B018A01DC0117961C9278
:1015E0001E92169713968C9181FFCBC19FE3292EF3
:1015F000FE0131964F01D70113969C91F30193FDA3
:10160000859193FF81913F01882309F44BC1853275
:1016100039F493FD859193FF81913F01853229F43F
:10162000B70190E00E94DA0CE6CFB12C412C512C8E
:10163000BFE1B51538F08B3219F198F4803211F111
:10164000833231F157FC3EC020ED280F2A3060F57F
:1016500056FE21C08B2D6AE00E94FA08B22EB80E09
:1016600006C08D3291F0803369F7689450F8F30129
:1016700093FD859193FF81913F018111D9CF22C0C4
:10168000689451F8689452F8F2CF689453F8EFCF09
:10169000689454F8ECCF842D6AE00E94FA08422E38
:1016A000480E689455F8E3CF8E3229F456FCFAC000
:1016B000689456F8DCCF8C3619F4689457F8D7CF75
:1016C0008836A9F2982F9F7D95549330C0F08336C9
:1016D00099F18337B9F1833509F05AC0F801C19007
:1016E000D1908F016B2D70E056FC02C06FEF7FEF41
:1016F000C6010E94C40C5C01689457F809C00C5FD5
:101700001F4F2982AA24A394B12C6401E89457F8AE
:1017100053FC04C04A141B0409F018F5342CA1141E
:10172000B10431F5332009F466CFB70180E290E0CF
:101730000E94DA0C3A94F6CFF801808189830E5F1B
:101740001F4FE0CFD801CD90DD908D016B2D70E063
:1017500056FC02C06FEF7FEFC6010E94CF0C5C0108
:10176000D5CFB70180E290E00E94DA0C4A94D2CF44
:10177000F60157FC859157FE81916F01B70190E00A
:101780000E94DA0C31103A94F1E0AF1AB108C7CFD9
:10179000843619F0893609F074C0F80157FE6AC022
:1017A00061917191819191918F01252D2F76522E0A
:1017B00097FF09C090958095709561957F4F8F4FE9
:1017C0009F4F689457F82AE030E0A4010E940A0D68
:1017D000C82EC818DC2CA52C56FE0CC0E894A0F826
:1017E000CB1440F454FE05C052FC03C0552D5E7E60
:1017F000A52EDB2CA4FE9DC0FE01EC0DF11D808109
:10180000803309F08FC06A2D697EA62E7A2D7870FC
:10181000372EA3FC9DC0A0FE97C0BC2CD41418F496
:101820004C0CB42CBD18A4FE99C0B70180E390E025
:101830000E94DA0CA2FE09C088E790E0A1FE02C077
:1018400088E590E0B7010E94DA0CCB1408F492C04E
:10185000CA94D12C8FEFC81AD80AC80CD91CD6014B
:101860008E916D01B70190E00E94DA0C8C149D04FA
:10187000B1F758CF61917191072E000C880B990B2D
:1018800093CFD52CE894D4F82AE030E0853739F1AD
:10189000452D497FD42E8037A9F058F48835A9F01A
:1018A0008F36D9F0F701868197812F96E2E10C946B
:1018B000860D8837B9F7D4FE02C06894D2F820E1CB
:1018C00030E00DC06894D4F8F6CF54FE03C0542F16
:1018D0005660D52E20E132E002C028E030E0F80169
:1018E000D7FE16C061917191819191916C877D872E
:1018F0008E879F878F01A4016C857D858E859F854E
:101900000E940A0DC82EC8185D2CE89457F862CFC3
:1019100081919191AC0170E060E04C875D876E87AA
:101920007F87E8CFA2FC02C0D39470CFD394D39426
:101930006DCF8A2D867809F469CFF6CFB70180E2A2
:1019400090E00E94DA0CD394D414C0F3312C6BCF06
:10195000342C3D18D41408F466CFF8CF8A2D86783D
:1019600009F473CF8BE2A1FE80E2A7FC8DE2B70100
:1019700090E069CFB70180E390E00E94DA0CBA945E
:1019800064CF8FEF9FEF91CFFC01059061507040C5
:101990000110D8F7809590958E0F9F1F0895FC0138
:1019A0006150704001900110D8F7809590958E0F8E
:1019B0009F1F08950F931F93CF93DF93182F092F25
:1019C000EB018B8181FD09C01FEF0FEF812F902F5D
:1019D000DF91CF911F910F91089582FF14C02E8146
:1019E0003F818C819D81281739073CF4E881F9817A
:1019F000CF0101969983888310838E819F81019600
:101A00009F838E83E3CFE885F985812F0995892B04
:101A1000A1F3DACFFA01AA27283061F1203191F140
:101A2000E8946F936E7F6E5F7F4F8F4F9F4FAF4FE6
:101A3000B1E040D0B4E03ED0670F781F891F9A1FF5
:101A4000A11D680F791F8A1F911DA11D6A0F711DAD
:101A5000811D911DA11D22D009F468943F91062E8D
:101A6000000C3019000C000C3019305D3193CEF6AB
:101A7000CF010895462F4770405D4193B3E00FD0EA
:101A8000C9F7F6CF462F4F70405D4A3318F0495DD5
:101A900031FD4052419302D0A9F7EACFB4E0A695B8
:101AA0009795879577956795BA95C9F700976105DA
:101AB000710508959B01AC010A2E06945795479530
:101AC00037952795BA95C9F7620F731F841F951F25
:101AD000A01D08952F923F924F925F926F927F9236
:101AE0008F929F92AF92BF92CF92DF92EF92FF922E
:101AF0000F931F93CF93DF93CDB7DEB7CA1BDB0BDA
:101B00000FB6F894DEBF0FBECDBF09942A8839887E
:101B100048885F846E847D848C849B84AA84B98485
:101B2000C884DF80EE80FD800C811B81AA81B98191
:101B3000CE0FD11D0FB6F894DEBF0FBECDBFED01A5
:061B40000895F894FFCFA8
:101B460005000A000A000000000000001400000062
:101B5600000000000000000000000000000000007F
:101B6600000000000000000000000000000000006F
:101B7600000000000000000100001C042000010518
:101B860005205F0400000000C61860004A0100003E
:101B9600EAABAF00BE38FA001311910126896C0139
:101BA600860800004804810002412400A4BA4A00C5
:101BB600847C420000182200007C000000006300C4
:101BC600101111002ED7E900C410E2002E12F10107
:101BD6000E3AE8004CA58F003F3CE8002EBCE8001A
:101BE6003F4244002EBAE8002E7AE800C6006300A1
:101BF600C600230090040201E0830F00814012001A
:101C06002E1240000EDAEA0044C51F012FBEF8006E
:101C16002E86E8002FC6F8003FBCF0013FBC10003E
:101C26002EF4E80131FE18018E10E20010C6E8001D
:101C3600318D14012184F00171D7180171D61C0170
:101C46002EC6E8002FBE10002EC664012FBE180156
:101C56002E38E8009F10420031C6E80031464500A4
:101C660031D61D0151111501312A42001F92F00192
:101C760027847000411004010E21E4004445000051
:101C86000000F001822000000EFAE801A1CDF80064
:101C96002E84E80010DAE8012EFEE0004C8A2300CC
:101CA6003E7AE80021B419010418E20008B0640085
:101CB600A98C92008610E200ABD618016DC61801F9
:101CC6002EC6E8002FBE1000367B08016D86100078
:101CD6002E38F800E208C90031C66C0131464500CD
:101CE600B1D6AA0051111501317AE8001F11F10190
:101CF6004C0CC1008410420086206200A222000023
:101D060003400080031003800320004000200010E1
:101D16000008000400020001038003400320008045
:101D26000310D00008000306080A04000E001F0076
:101D360004000E0011000E000A000A001100040043
:101D46000A0015000A0011000A00040004000A0037
:101D560011000E000A000A00110004000A00150016
:101D66000A001F00110011001100110011001F00D0
:101D760000000E000A000A000A000E000000000023
:101D860000000400040004000000000000000E0033
:101D96000A000A000A000E0000001C001E001C00BB
:101DA600180000000000000000000E001F001E00CA
:101DB6000C00000000000000000000001C001E00D7
:101DC6001C001800000000000E001F001E000C0082
:101DD6000000313233343536373839505352545780
:101DE6004C596F752057696E2120576F6E202564F8
:101DF6002F25642000596F75204C6F73652120577D
:101E06006F6E2025642F25642000596F752044725B
:101E160065772120576F6E2025642F2564204C6F2F
:0A1E260073742025642F256420004A
:00000001FF
