:100000000C943A000C9457000C9457000C94570031
:100010000C9457000C9457000C9457000C94570004
:100020000C9457000C9457000C9457000C945700F4
:100030000C9457000C9457000C9457000C945700E4
:100040000C9457000C9457000C9457000C945700D4
:100050000C9457000C9457000C9457000C945700C4
:100060000C9457000C9457000C9457000C945700B4
:100070000C94570011241FBECFEFD4E0DEBFCDBFDC
:1000800013E0A0E0B1E0EEE2FAE102C005900D92CB
:10009000A234B107D9F723E0A2E4B3E001C01D9276
:1000A000A037B207E1F70E949C070C94150D0C9441
:1000B000000084EF91E00E944B058DE491E00E94E6
:1000C000CE0482E10E94BE0481E090E00E94C4045C
:1000D0000C949907CF93DF9300D0CDB7DEB7860F8E
:1000E000971FFC01808189831A82CE0101960E94AC
:1000F000B1040F900F90DF91CF910895809151033B
:10010000909152038230910529F41092520310927B
:1001100051030895019690935203809351030895DB
:100120008091510390915203009739F482E090E05E
:10013000909352038093510308950197F9CF8091D2
:100140000001909101018930910539F481E090E03E
:10015000909301018093000108950196F9CF809159
:100160000001909101018130910539F489E090E01E
:10017000909301018093000108950197F9CF209198
:10018000020130910301809104019091050128172B
:10019000390759F583E090E090935203809351031F
:1001A00080914D0390914E03DC01AE5BBC4FE0911A
:1001B0005103F0915203E95BFE4F20812C9301968D
:1001C00090934E0380934D038AE090E09093050155
:1001D00080930401909303018093020181E090E0F9
:1001E0009093500380934F0308952115310531F406
:1001F00081309105B1F485E090E0CECF213031051A
:1002000031F482309105B9F3892B41F0C9CF223006
:10021000310531F6009779F3019711F684E090E00B
:10022000BBCF029709F0BCCFF9CF0F931F93CF93A9
:10023000DF93EC0180E590E00E94F1088C01892BAE
:1002400009F180910001909101019C012C1B3D0B53
:100250002C173D07ECF49F938F93DF93CF9389EF97
:1002600092E09F938F931F9280E58F931F930F933C
:100270000E94280A8DB79EB70A960FB6F8949EBFC3
:100280000FBE8DBFC801DF91CF911F910F910895CF
:10029000C217D307C4F49F938F93DF93CF938DE05E
:1002A00093E09F938F931F9280E58F931F930F93FB
:1002B0000E94280A8DB79EB70A960FB6F8949EBF83
:1002C0000FBE8DBFDFCFC217D307E1F69F938F9389
:1002D000DF93CF939F938F93DF93CF9382E293E04B
:1002E0009F938F931F9280E58F931F930F930E948C
:1002F000280A8DB79EB70E960FB6F8949EBF0FBE14
:100300008DBFC0CFE2E4F3E090E080E021912223B2
:1003100039F0273509F4019623E0EC34F207B1F700
:100320000E941501D82FC92F0E94B3038D2F9C2F37
:100330000E94B1040E94DC020E94D304FBCFE1E6DC
:10034000F0E080E880831082A89584B7877F84BF1F
:10035000E0E6F0E080818861808310820895109249
:10036000800084E0809381001092850010928400C8
:100370000895809184009091850008959C0180915A
:10038000840090918500AC01421B530B483E5340C2
:10039000B0F708952091840030918500820F931F5B
:1003A0000C94BE01853098F4673088F421E030E089
:1003B00001C0220F6A95EAF7E82FF0E0EC5AFC4FF3
:1003C000822F8095908189234111822B808308950B
:1003D000853080F4673070F4E82FF0E0EC5AFC4F81
:1003E00081E090E001C0880F6A95EAF79081982338
:1003F00081E009F480E0089560915303E62FF0E076
:10040000EC5AFC4F80810E944902809153038F5F18
:10041000853018F480935303089510925303089580
:10042000E4E5F3E0108211821282138214820895AF
:100430000E9427020C9410029C01FC01FF2784A15A
:10044000832B84A385A1832B85A381E00895CF937B
:10045000DF93C9EDD2E0899199910E941C0282E05C
:10046000C73ED807C1F783E090E40E941C0280E0F9
:1004700090E80E941C0283E090E10E941C0283E04D
:1004800090E80E941C0283E090E2DF91CF910C94EF
:100490001C02E0915903F0E0EE0FFF1FE153FD4F06
:1004A00020813181F901FF2795A1932B95A3A9ED17
:1004B000B2E02D913D91F901FF2780FF1CC025A1DD
:1004C000932F9095922395A3869592E0A73EB90726
:1004D00081F7E62FF0E0EE0FFF1FE153FD4F208183
:1004E0003181F901FF2795A1832F8095892385A369
:1004F00060935903089595A1932BE5CFFC01892BB7
:1005000081F08381681B67FD09C0062E000C770B04
:10051000948181E09617170609F00CF480E0817051
:10052000089580E00895FC01A62F622F892B69F1C0
:100530008181481750F59281291738F59381A91BBD
:10054000A7FD23C00A2E000CBB0B94819A171B0633
:10055000E1F0DCF00E948208480F858190E0BD0147
:100560000E948B089C01942F969596959695E20F84
:10057000F31FE90FF11D868190E0477002C0959549
:1005800087954A95E2F78170089580E00895CF93AA
:10059000DF93EC010E94AF019E0150E040E062E178
:1005A0007AE780E090E00E94B00830935D032093EA
:1005B0005C03DF91CF91089580915A0390915B0382
:1005C0000E94BE0180915A0390915B0320915C03CD
:1005D00030915D03820F931F90935B0380935A03C6
:1005E0000895692F0C94E80141E0611101C040E0D9
:1005F000692F0C94D2010C94F4025F926F927F9257
:100600008F929F92AF92BF92CF92DF92EF92FF9222
:100610000F931F93CF93DF93862E772E942E682E01
:10062000592EB62EA72E062E000C770BE82F082E7B
:10063000000CFF0B8B010E1B1F0B272D072C000C32
:10064000330B492F092E000C550BE901C41BD50BA8
:1006500017FF59C0DD24DA94D7FD02C0DD24D394FE
:100660008F01061B170BCC24CA94D7FF03C0EA01E5
:10067000C21BD30B0C171D076CF1780117FF03C0C9
:100680008FEFE81AF80AF594E794A92E681014C0C1
:10069000692D8B2D9A2DDF91CF911F910F91FF9096
:1006A000EF90DF90CF90BF90AF909F908F907F9012
:1006B0006F905F900C94F402692D862D9A2D0E9404
:1006C000F402EC1AFD0AF7FE03C0E00EF11EAD0CB9
:1006D0006C0CDCCF7E01D7FF03C09FEFE91AF90A4B
:1006E000F594E794B82E571499F2692D8B2D952D1A
:1006F0000E94F402E01AF10AF7FE03C0EC0EFD1EA0
:10070000BC0C5D0CF0CFCC24C394DD24DA94D7FD6F
:10071000AECFDD24D394AECFFF920F931F93CF9330
:10072000DF93D82FF92E162FC72F042F792F0E9471
:10073000FD02402F6D2F7C2F8D2F9F2D0E94FD02DB
:10074000402F612F7C2F812F9F2D0E94FD02402F73
:10075000612F7C2F8D2F9C2FDF91CF911F910F91B7
:10076000FF900C94FD020E941002E6E0F1E0118A75
:1007700014860895DF92EF92FF920F931F93CF9309
:10078000DF93D82E7B01C62F0F2D80910801909109
:100790000901D0E0019751F1CE2DCD0FE0910E016E
:1007A000F0910F018181D81708F45CC0D0E0E0918E
:1007B0000E01F0910F018281D81708F455C0CF5F68
:1007C00027C0212F4D2F6D2D0E949302682F8E2D53
:1007D000810F902F0E94F4021F5F80910E01909173
:1007E0000F01FC012281121760F3DF5F0F2D0D1B3B
:1007F000E0910E01F0910F018181D81798F0D0E0BF
:10080000E0910E01F0910F018281D81768F001503C
:100810008C2F902FDF91CF911F910F91FF90EF9030
:10082000DF90089510E0D9CF60E08E2D8D0F902FCE
:100830000E94F402DF5FE4CF212F4D2F6D2D0E9427
:100840009302682F8C2F9F2D910F0E94F4021F5F3F
:1008500080910E0190910F01FC012281121760F32B
:10086000DF5F9ACF10E0F4CF60E08C2F9F2D9D0FBB
:100870000E94F402DF5F9BCF1F93CF93DF93EC01C5
:1008800010E08991882341F00E94BA03BC011F5FE8
:10089000853014F477FFF5CF812FDF91CF911F9131
:1008A00008950F931F93CF93DF93EC01362F272FDB
:1008B00010921201409313011092160100910E0143
:1008C00010910F010115110509F446C0F80181814D
:1008D00060910C0170910D0190E00E948B08BC01A9
:1008E00080911001909111010E949C08CB016AE057
:1008F00070E00E948B08909315018093140130934F
:100900000A0120930B0140E250E0BE0187E191E033
:100910000E94190A80910601909107010197E1F464
:10092000FE0101900020E9F73197BF016C1B7D0BA0
:10093000F80181818F5F0E94820881502091080117
:100940003091090195E02130310509F497E09817BD
:1009500018F48EEF80931601DF91CF911F910F91C4
:100960000895209108013091090170E0213031058E
:1009700009F476E04FEF60E00C94510490E090931E
:100980000D0180930C010895909307018093060157
:1009900008959093090180930801089590930F01A1
:1009A00080930E01089580915E0390915F030196FC
:1009B00090935F0380935E032091140130911501A1
:1009C0008217930708F441C010925F0310925E03F0
:1009D000E0911201F0E0EA5FFE4F8189811109C0C8
:1009E00080911301823088F181508093130110921D
:1009F00012018091120190E0FC01EA5FFE4F218913
:100A0000222319F14091060150910701209116010E
:100A100041155105E1F04130510551F18091160128
:100A20008F5F80931601082E000C990BE0910E0148
:100A3000F0910F012181281719063CF4109216013C
:100A4000809112018F5F809312010C94FC0121119F
:100A5000E5CF60910A0170910B01895E9E4F0E9463
:100A60003C04909112019150980F90931201D6CFAF
:100A700060910A0170910B014091080150910901A8
:100A80004130510531F4720F895E9E4F0E943C0443
:100A9000C5CF621BF9CFCF93DF93C6E0D1E09B8730
:100AA0008A870E94180284E190E09F838E83DF9101
:100AB000CF910C94B3039C0163307105A1F040F415
:100AC00061307105E1F06230710511F180E0089547
:100AD00064307105D9F7F901FF2784A1832B84A322
:100AE00085A1832B09C0F901FF2784A1832B84A34F
:100AF00095A1832F8095892385A381E00895F9012D
:100B0000FF2794A1832F8095982394A395A1F3CFD9
:100B1000F901FF2794A1832F80958923E0CFE82F47
:100B2000F0E0EE0FFF1FE05AFC4F8081882329F090
:100B3000818191E089278170089580E0FCCFE82FC2
:100B4000F0E0EE0FFF1FE05AFC4F8081811103C0DF
:100B500081818170089580E0FCCFE82FF0E0EE0FF6
:100B6000FF1FE05AFC4F80810895E82FF0E0EE0F60
:100B7000FF1FE05AFC4F908181E0892708957F9202
:100B80008F929F92AF92BF92CF92DF92EF92FF929D
:100B90000F931F93CF93DF93C0E6D3E057EEC52E9C
:100BA00052E0D52E66E0762E88818983F601019188
:100BB00011916F015801BB24F50124A1E12EFF24FE
:100BC00085A190E08E219F2130E02E213F21232B13
:100BD000B1F133E0832E912C892B19F094E0892E0A
:100BE000912C64E070E0C8010E945B0562E070E057
:100BF000C8010E945B05872D8A95F1F7F50183A155
:100C000090E0E822F92281E0EF2809F080E0888373
:100C1000B401C8010E945B052296F3E0CA36DF07E3
:100C200019F6DF91CF911F910F91FF90EF90DF9018
:100C3000CF90BF90AF909F908F907F900895882421
:100C40008394912C892B69F282E0882E912CC9CF54
:100C500008950C94BA060C94DB060C94C0060C9410
:100C6000C6060C94CC060E94CC060E94C6068823B9
:100C7000E1F38CE291E00197F1F70E94BA0681114D
:100C80000C942B0608950C94E206CF93DF9300D0CA
:100C90000F92CDB7DEB78091F1029091F202A09150
:100CA000F30289839A83AB83509A589A0E9455071E
:100CB0008FE690E00E94EE0681E090E00E944407FB
:100CC00061E070E081E090E00E9431070E941D0722
:100CD000CE0101960E94A2060F900F900F90DF9117
:100CE000CF910895CF93DF93EC01D901FB0120E070
:100CF00080E061E070E0841304C02C93DF91CF9119
:100D0000089591919B01092E02C0220F331F0A946E
:100D1000E2F72F5F3F4F369527952C0F3D1F02C0FE
:100D2000369527959A95E2F72F3F310531F328F351
:100D30008F5FE1CF9C0101979093CD0021502093CC
:100D4000CC000895CF93DF93EC01888199810E94B4
:100D50009A068A819BEF980F943008F088E098E11A
:100D60009093C9008550880F8093CA0081E0DF917D
:100D7000CF9108958091C800881F8827881F089503
:100D80008091C80085FB882780F908958091C8006C
:100D900086FB882780F90895CF93C82F0E94C0064C
:100DA0008823E1F38091C80080648093C800C093D9
:100DB000CE00CF9108958091C80087FFFCCF80912D
:100DC000CE000895CF93DF93EC018991811103C088
:100DD000DF91CF9108950E94CC06F7CFCF93DF9398
:100DE0000F92CDB7DEB79E012F5F3F4F45E064EF16
:100DF00072E00E947206E82F81E08E0F8093370127
:100E00008981815087BD18BC85B5877039F095B54B
:100E1000809137018770987F892B85BD898190E00B
:100E2000F0E0EC50FD4F208102C0880F991F2A95F9
:100E3000E2F70F90DF91CF91089585B3897F85BB4D
:100E400095B5809137018770987F892B85BD08956E
:100E500085B5887F85BD089585B382FB882780F995
:100E60000895009719F0019751F0089584B58F7394
:100E70006295660F660F607C682B64BD089584B52B
:100E8000629560738F7CF8CF009721F0019739F05D
:100E900080E0089584B58C7F84BD81E0089584B599
:100EA0008E7F84BD84B58260F7CF14BC15BC16BCA0
:100EB00018BC84B58E7F84BD84B5826084BD81E01A
:100EC000089581110CC080916A03882331F08091CC
:100ED0006B0391E089278170089580E0FCCF80E06A
:100EE000089581110AC080916A03811104C0809124
:100EF0006B038170089580E0FCCF80E0089581113C
:100F000003C080916A03089580E00895811105C0AF
:100F100080916A0391E08927089580E00895EAE6C8
:100F2000F3E08081818389B1881F8827881F8083AF
:100F3000089557985F9808950E949F010E94590054
:100F40000E94280684EF91E00E94C7020E94450695
:100F50000E94DC020E94D3040E94BF0580E00E9430
:100F60008F0581110E949F0082E00E948F058111F0
:100F70000E94AF0081E00E948F0581110E94AF00A6
:100F800083E00E948F0581110E949F0084E00E94EF
:100F90008F058823B9F0809100010E943306CAE0D2
:100FA000D0E080914D0390914E032091000130914B
:100FB0000101821793071CF18E5B9C4FFC0111828B
:100FC0000E9482010E942906882371F00E942B064C
:100FD000082E000C990B8F3F910509F028F490938F
:100FE000010180930001DBCF60910001709101014C
:100FF000615071098EE391E00E946A00A9CF0E94BE
:10100000DC020E94D3040E94BF0580914F0390919F
:101010005003892B09F04AC080E00E948F0581119E
:101020000E947E0082E00E948F0581110E94900044
:1010300081E00E948F0581110E94900083E00E9450
:101040008F0581110E947E0084E00E948F05882315
:10105000A1F0809151030E94330680915103909139
:1010600052039093030180930201809104019091B7
:1010700005010A9711F00E94BF000E9429068823EB
:10108000A9F00E942B06082E000C990B8F3F9105AA
:1010900009F060F4909305018093040180910201AE
:1010A000909103010A9711F00E94BF000E948F07E0
:1010B00080E00E9461078823C9F0109252031092C9
:1010C0005103D0930501C0930401D0930301C09351
:1010D00002011092500310924F03609151037091DE
:1010E000520387E491E00E946A005BCF80914F0336
:1010F00090915003892B89F384E00E948F05811120
:10110000DCCFEBCF002480FD060E660F11F0869534
:10111000D1F7802D08950024552704C0080E591FCB
:10112000880F991F009729F076956795B8F3710598
:10113000B9F7802D952F0895AA1BBB1B51E107C05D
:10114000AA1FBB1FA617B70710F0A61BB70B881F57
:10115000991F5A95A9F780959095BC01CD010895E6
:10116000052E97FB1EF400940E94C70857FD07D078
:101170000E94CF0807FC03D04EF40C94C70850958A
:101180004095309521953F4F4F4F5F4F0895909573
:101190008095709561957F4F8F4F9F4F0895A1E285
:1011A0001A2EAA1BBB1BFD010DC0AA1FBB1FEE1FE1
:1011B000FF1FA217B307E407F50720F0A21BB30B2C
:1011C000E40BF50B661F771F881F991F1A9469F7A8
:1011D00060957095809590959B01AC01BD01CF0104
:1011E00008950F931F93CF93DF939C01029710F400
:1011F00022E030E0E0916E03F0916F0390E080E038
:10120000B0E0A0E0309791F4009709F445C0821B4C
:10121000930B84309105B8F58A819B816115710526
:1012200069F1FB0193838283FE0111C040815181EA
:101230000281138142175307F0F04217530799F4C4
:10124000109761F012960C93129713961C93329696
:10125000CF01DF91CF911F910F91089500936E03FD
:1012600010936F03F4CF009719F04817590718F43B
:10127000CA01BD01EF01DF01F801C4CF90936F03F4
:1012800080936E03D1CFFE01E80FF91F21933193B4
:10129000029799838883DCCF80916C0390916D03D2
:1012A000892B41F480913A0190913B0190936D0319
:1012B00080936C038091380190913901009741F43B
:1012C0008DB79EB740913C0150913D01841B950B19
:1012D00040916C0350916D034817590708F0B8CF3F
:1012E000841B950B8217930708F4B2CFB9016E5F88
:1012F0007F4F8617970708F4ABCF640F751F709365
:101300006D0360936C03FA0121933193A1CFCF93C6
:10131000DF939C010097E9F0FC013297138212825F
:10132000C0916E03D0916F03DE0190E080E02097C2
:10133000A1F480819181280F391F80916C039091D5
:101340006D038217930709F067C0F0936D03E09374
:101350006C03DF91CF910895DA01AE17BF0708F053
:1013600041C012964D915C911397CD0141155105E5
:1013700099F7DC011396FC93EE9312974D915D91D2
:10138000A40FB51FEA17FB0781F4208131812E5F7E
:101390003F4F240F351FDC0111963C932E93228181
:1013A000338113963C932E931297B0E0A0E08A818C
:1013B0009B810097B1F5FE0181919191E80FF91F92
:1013C00080916C0390916D038E179F0711F6109713
:1013D00059F510926F0310926E03D0936D03C09372
:1013E0006C03B7CFB383A28340815181240F351F93
:1013F000A217B30771F44E5F5F4F2D913C91119787
:10140000420F531F5183408312962D913C91338399
:101410002283009709F0ADCFF0936F03E0936E0342
:1014200098CFDE01EC01C3CF13961C921E92129747
:10143000D4CFFB01DC014150504048F001900D92A7
:101440000020C9F701C01D9241505040E0F70895B7
:10145000AEE0B0E0EEE2FAE00C94EC0C0D891E89EF
:101460008F89988D26E02C831A83098397FF02C009
:1014700080E090E801979E838D83AE01455E5F4FCB
:10148000698D7A8DCE0101960E94580A4D815E8148
:1014900057FD0AC02F813885421753070CF49A0173
:1014A000020F131FF80110822E96E4E00C94080D31
:1014B000AFE0B0E0EEE5FAE00C94DE0C7C013B011D
:1014C0008A01DC0117961C921E92169713968C9136
:1014D00081FFCBC19FE3292EFE0131964F01D70139
:1014E00013969C91F30193FD859193FF81913F01A8
:1014F000882309F44BC1853239F493FD859193FF1C
:1015000081913F01853229F4B70190E00E944E0C91
:10151000E6CFB12C412C512CBFE1B51538F08B3200
:1015200019F198F4803211F1833231F157FC3EC049
:1015300020ED280F2A3060F556FE21C08B2D6AE081
:101540000E948208B22EB80E06C08D3291F0803310
:1015500069F7689450F8F30193FD859193FF8191A9
:101560003F018111D9CF22C0689451F8689452F894
:10157000F2CF689453F8EFCF689454F8ECCF842DF1
:101580006AE00E948208422E480E689455F8E3CF24
:101590008E3229F456FCFAC0689456F8DCCF8C36AB
:1015A00019F4689457F8D7CF8836A9F2982F9F7D01
:1015B00095549330C0F0833699F18337B9F1833570
:1015C00009F05AC0F801C190D1908F016B2D70E0E5
:1015D00056FC02C06FEF7FEFC6010E94380C5C0121
:1015E000689457F809C00C5F1F4F2982AA24A3945E
:1015F000B12C6401E89457F853FC04C04A141B044E
:1016000009F018F5342CA114B10431F5332009F494
:1016100066CFB70180E290E00E944E0C3A94F6CF7C
:10162000F801808189830E5F1F4FE0CFD801CD90F4
:10163000DD908D016B2D70E056FC02C06FEF7FEFE7
:10164000C6010E94430C5C01D5CFB70180E290E057
:101650000E944E0C4A94D2CFF60157FC859157FE5A
:1016600081916F01B70190E00E944E0C31103A94C5
:10167000F1E0AF1AB108C7CF843619F0893609F006
:1016800074C0F80157FE6AC0619171918191919186
:101690008F01252D2F76522E97FF09C090958095AA
:1016A000709561957F4F8F4F9F4F689457F82AE050
:1016B00030E0A4010E947E0CC82EC818DC2CA52C9A
:1016C00056FE0CC0E894A0F8CB1440F454FE05C0BC
:1016D00052FC03C0552D5E7EA52EDB2CA4FE9DC0C2
:1016E000FE01EC0DF11D8081803309F08FC06A2D61
:1016F000697EA62E7A2D7870372EA3FC9DC0A0FEA1
:1017000097C0BC2CD41418F44C0CB42CBD18A4FEF7
:1017100099C0B70180E390E00E944E0CA2FE09C080
:1017200088E790E0A1FE02C088E590E0B7010E9442
:101730004E0CCB1408F492C0CA94D12C8FEFC81A67
:10174000D80AC80CD91CD6018E916D01B70190E062
:101750000E944E0C8C149D04B1F758CF6191719189
:10176000072E000C880B990B93CFD52CE894D4F856
:101770002AE030E0853739F1452D497FD42E803776
:10178000A9F058F48835A9F08F36D9F0F701868191
:1017900097812F96E2E10C94FA0C8837B9F7D4FEC2
:1017A00002C06894D2F820E130E00DC06894D4F80B
:1017B000F6CF54FE03C0542F5660D52E20E132E000
:1017C00002C028E030E0F801D7FE16C061917191A7
:1017D000819191916C877D878E879F878F01A4016E
:1017E0006C857D858E859F850E947E0CC82EC818CD
:1017F0005D2CE89457F862CF81919191AC0170E033
:1018000060E04C875D876E877F87E8CFA2FC02C0CF
:10181000D39470CFD394D3946DCF8A2D867809F466
:1018200069CFF6CFB70180E290E00E944E0CD394CE
:10183000D414C0F3312C6BCF342C3D18D41408F4DD
:1018400066CFF8CF8A2D867809F473CF8BE2A1FE9C
:1018500080E2A7FC8DE2B70190E069CFB70180E399
:1018600090E00E944E0CBA9464CF8FEF9FEF91CF1F
:10187000FC010590615070400110D8F7809590955B
:101880008E0F9F1F0895FC01615070400190011060
:10189000D8F7809590958E0F9F1F08950F931F93F3
:1018A000CF93DF93182F092FEB018B8181FD09C0A6
:1018B0001FEF0FEF812F902FDF91CF911F910F918D
:1018C000089582FF14C02E813F818C819D8128174D
:1018D00039073CF4E881F981CF0101969983888327
:1018E00010838E819F8101969F838E83E3CFE8854D
:1018F000F985812F0995892BA1F3DACFFA01AA275F
:10190000283061F1203191F1E8946F936E7F6E5F22
:101910007F4F8F4F9F4FAF4FB1E040D0B4E03ED0EC
:10192000670F781F891F9A1FA11D680F791F8A1FD3
:10193000911DA11D6A0F711D811D911DA11D22D038
:1019400009F468943F91062E000C3019000C000C2D
:101950003019305D3193CEF6CF010895462F477090
:10196000405D4193B3E00FD0C9F7F6CF462F4F70DB
:10197000405D4A3318F0495D31FD4052419302D039
:10198000A9F7EACFB4E0A6959795879577956795DF
:10199000BA95C9F700976105710508959B01AC01DF
:1019A0000A2E06945795479537952795BA95C9F706
:1019B000620F731F841F951FA01D08952F923F92E1
:1019C0004F925F926F927F928F929F92AF92BF924F
:1019D000CF92DF92EF92FF920F931F93CF93DF93FB
:1019E000CDB7DEB7CA1BDB0B0FB6F894DEBF0FBE58
:1019F000CDBF09942A88398848885F846E847D84A5
:101A00008C849B84AA84B984C884DF80EE80FD80A6
:101A10000C811B81AA81B981CE0FD11D0FB6F8941C
:0E1A2000DEBF0FBECDBFED010895F894FFCFDD
:101A2E0005000A000A00000000000000140000007B
:101A3E000000000000000000000000000000000098
:101A4E000000000000000000000000000000000088
:101A5E000000000000000001000070032000313281
:101A6E003334353637383950535254574C010505F7
:101A7E00205F0400000000C61860004A010000EA62
:101A8E00ABAF00BE38FA001311910126896C0186A6
:101A9E000800004804810002412400A4BA4A0084D0
:101AAE007C420000182200007C0000000063001041
:101ABE001111002ED7E900C410E2002E12F1010E12
:101ACE003AE8004CA58F003F3CE8002EBCE8003FF2
:101ADE004244002EBAE8002E7AE800C6006300C623
:101AEE0000230090040201E0830F00814012002EBB
:101AFE001240000EDAEA0044C51F012FBEF8002E78
:101B0E0086E8002FC6F8003FBCF0013FBC10002E47
:101B1E00F4E80131FE18018E10E20010C6E8003123
:101B2E008D14012184F00171D7180171D61C012E7C
:101B3E00C6E8002FBE10002EC664012FBE18012E5F
:101B4E0038E8009F10420031C6E8003146450031AA
:101B5E00D61D0151111501312A42001F92F00127A5
:101B6E00847000411004010E21E400444500000081
:101B7E0000F001822000000EFAE801A1CDF8002E3F
:101B8E0084E80010DAE8012EFEE0004C8A23003EC5
:101B9E007AE80021B419010418E20008B06400A923
:101BAE008C92008610E200ABD618016DC618012E7D
:101BBE00C6E8002FBE1000367B08016D8610002E81
:101BCE0038F800E208C90031C66C0131464500B153
:101BDE00D6AA0051111501317AE8001F11F1014CFE
:101BEE000CC1008410420086206200A22200000375
:101BFE0040008003100380032000400020001000EE
:101C0E00080004000200010380034003200080034B
:101C1E0010D00008000306080A596F752057696E28
:101C2E002120576F6E2025642F25642000596F7573
:101C3E00204C6F73652120576F6E2025642F25640D
:101C4E002000596F7520447265772120576F6E20E2
:101C5E0025642F2564204C6F73742025642F256412
:021C6E00200054
:00000001FF
